{
  "_format": "hh-sol-artifact-1",
  "contractName": "Game",
  "sourceName": "contracts/Game.sol",
  "abi": [
    {
      "inputs": [],
      "name": "InvalidInitialization",
      "type": "error"
    },
    {
      "inputs": [],
      "name": "NotInitializing",
      "type": "error"
    },
    {
      "inputs": [
        {
          "internalType": "address",
          "name": "owner",
          "type": "address"
        }
      ],
      "name": "OwnableInvalidOwner",
      "type": "error"
    },
    {
      "inputs": [
        {
          "internalType": "address",
          "name": "account",
          "type": "address"
        }
      ],
      "name": "OwnableUnauthorizedAccount",
      "type": "error"
    },
    {
      "inputs": [],
      "name": "ReentrancyGuardReentrantCall",
      "type": "error"
    },
    {
      "anonymous": false,
      "inputs": [
        {
          "indexed": false,
          "internalType": "uint64",
          "name": "version",
          "type": "uint64"
        }
      ],
      "name": "Initialized",
      "type": "event"
    },
    {
      "anonymous": false,
      "inputs": [
        {
          "indexed": true,
          "internalType": "address",
          "name": "previousOwner",
          "type": "address"
        },
        {
          "indexed": true,
          "internalType": "address",
          "name": "newOwner",
          "type": "address"
        }
      ],
      "name": "OwnershipTransferred",
      "type": "event"
    },
    {
      "inputs": [
        {
          "internalType": "address",
          "name": "",
          "type": "address"
        },
        {
          "internalType": "uint256",
          "name": "",
          "type": "uint256"
        }
      ],
      "name": "gameRecord",
      "outputs": [
        {
          "internalType": "enum IGame.Mode",
          "name": "mode",
          "type": "uint8"
        },
        {
          "internalType": "bool",
          "name": "result",
          "type": "bool"
        },
        {
          "internalType": "uint256",
          "name": "reward",
          "type": "uint256"
        },
        {
          "internalType": "uint256",
          "name": "time",
          "type": "uint256"
        }
      ],
      "stateMutability": "view",
      "type": "function"
    },
    {
      "inputs": [
        {
          "internalType": "address",
          "name": "_user",
          "type": "address"
        }
      ],
      "name": "getEnergy",
      "outputs": [
        {
          "internalType": "uint256",
          "name": "",
          "type": "uint256"
        }
      ],
      "stateMutability": "view",
      "type": "function"
    },
    {
      "inputs": [],
      "name": "initialize",
      "outputs": [],
      "stateMutability": "nonpayable",
      "type": "function"
    },
    {
      "inputs": [
        {
          "internalType": "enum IMonstersMeta.Evolution",
          "name": "",
          "type": "uint8"
        }
      ],
      "name": "monsters",
      "outputs": [
        {
          "internalType": "uint256",
          "name": "winrate",
          "type": "uint256"
        },
        {
          "internalType": "uint256",
          "name": "winReward",
          "type": "uint256"
        },
        {
          "internalType": "uint256",
          "name": "loseReward",
          "type": "uint256"
        }
      ],
      "stateMutability": "view",
      "type": "function"
    },
    {
      "inputs": [],
      "name": "owner",
      "outputs": [
        {
          "internalType": "address",
          "name": "",
          "type": "address"
        }
      ],
      "stateMutability": "view",
      "type": "function"
    },
    {
      "inputs": [
        {
          "internalType": "enum IGame.Mode",
          "name": "_mode",
          "type": "uint8"
        },
        {
          "internalType": "uint256",
          "name": "_tokenId",
          "type": "uint256"
        }
      ],
      "name": "play",
      "outputs": [
        {
          "internalType": "bool",
          "name": "",
          "type": "bool"
        }
      ],
      "stateMutability": "nonpayable",
      "type": "function"
    },
    {
      "inputs": [],
      "name": "renounceOwnership",
      "outputs": [],
      "stateMutability": "nonpayable",
      "type": "function"
    },
    {
      "inputs": [
        {
          "internalType": "enum IMonstersMeta.Evolution[]",
          "name": "_evo",
          "type": "uint8[]"
        },
        {
          "internalType": "uint256[]",
          "name": "_loseReward",
          "type": "uint256[]"
        }
      ],
      "name": "setLoseReward",
      "outputs": [],
      "stateMutability": "nonpayable",
      "type": "function"
    },
    {
      "inputs": [],
      "name": "setMaintenance",
      "outputs": [],
      "stateMutability": "nonpayable",
      "type": "function"
    },
    {
      "inputs": [
        {
          "internalType": "uint256",
          "name": "_maxEnergy",
          "type": "uint256"
        }
      ],
      "name": "setMaxEnergy",
      "outputs": [],
      "stateMutability": "nonpayable",
      "type": "function"
    },
    {
      "inputs": [
        {
          "internalType": "address",
          "name": "_contractRegistry",
          "type": "address"
        }
      ],
      "name": "setRegistry",
      "outputs": [],
      "stateMutability": "nonpayable",
      "type": "function"
    },
    {
      "inputs": [
        {
          "internalType": "enum IMonstersMeta.Evolution[]",
          "name": "_evo",
          "type": "uint8[]"
        },
        {
          "internalType": "uint256[]",
          "name": "_winrate",
          "type": "uint256[]"
        }
      ],
      "name": "setWinRate",
      "outputs": [],
      "stateMutability": "nonpayable",
      "type": "function"
    },
    {
      "inputs": [
        {
          "internalType": "enum IMonstersMeta.Evolution[]",
          "name": "_evo",
          "type": "uint8[]"
        },
        {
          "internalType": "uint256[]",
          "name": "_winReward",
          "type": "uint256[]"
        }
      ],
      "name": "setWinReward",
      "outputs": [],
      "stateMutability": "nonpayable",
      "type": "function"
    },
    {
      "inputs": [],
      "name": "system",
      "outputs": [
        {
          "internalType": "address",
          "name": "contractRegistry",
          "type": "address"
        },
        {
          "internalType": "uint256",
          "name": "maxEnergy",
          "type": "uint256"
        },
        {
          "internalType": "uint256",
          "name": "userPercent",
          "type": "uint256"
        },
        {
          "internalType": "uint256",
          "name": "uplinePercent",
          "type": "uint256"
        },
        {
          "internalType": "bool",
          "name": "isUndermaintenance",
          "type": "bool"
        }
      ],
      "stateMutability": "view",
      "type": "function"
    },
    {
      "inputs": [
        {
          "internalType": "address",
          "name": "newOwner",
          "type": "address"
        }
      ],
      "name": "transferOwnership",
      "outputs": [],
      "stateMutability": "nonpayable",
      "type": "function"
    },
    {
      "inputs": [
        {
          "internalType": "address",
          "name": "",
          "type": "address"
        }
      ],
      "name": "users",
      "outputs": [
        {
          "internalType": "uint256",
          "name": "earnings",
          "type": "uint256"
        },
        {
          "internalType": "uint256",
          "name": "energy",
          "type": "uint256"
        },
        {
          "internalType": "uint256",
          "name": "lastTimeOfPlay",
          "type": "uint256"
        },
        {
          "internalType": "uint256",
          "name": "gameCount",
          "type": "uint256"
        }
      ],
      "stateMutability": "view",
      "type": "function"
    }
  ],
  "bytecode": "0x608060405234801561001057600080fd5b50612741806100206000396000f3fe608060405234801561001057600080fd5b50600436106101005760003560e01c806395bf75fd11610097578063a91ee0dc11610066578063a91ee0dc146102a5578063ac9c1026146102c1578063ee50b216146102cb578063f2fde38b146102e757610100565b806395bf75fd146102015780639b1e733e14610223578063a069d05f14610256578063a87430ba1461027257610100565b80638129fc1c116100d35780638129fc1c1461018d5780638b63538c146101975780638da5cb5b146101b35780638fc0f5eb146101d157610100565b8063314040ad1461010557806341e4cb4614610121578063665da33814610153578063715018a614610183575b600080fd5b61011f600480360381019061011a9190611822565b610303565b005b61013b60048036038101906101369190611874565b610318565b60405161014a939291906118b0565b60405180910390f35b61016d6004803603810190610168919061190c565b610342565b60405161017a9190611967565b60405180910390f35b61018b610a53565b005b610195610a67565b005b6101b160048036038101906101ac9190611b9e565b610c05565b005b6101bb610ce8565b6040516101c89190611c57565b60405180910390f35b6101eb60048036038101906101e69190611c9e565b610d20565b6040516101f89190611ccb565b60405180910390f35b610209610e50565b60405161021a959493929190611ce6565b60405180910390f35b61023d60048036038101906102389190611d39565b610ea1565b60405161024d9493929190611df0565b60405180910390f35b610270600480360381019061026b9190611b9e565b610ef8565b005b61028c60048036038101906102879190611c9e565b611039565b60405161029c9493929190611e35565b60405180910390f35b6102bf60048036038101906102ba9190611c9e565b611069565b005b6102c96110b7565b005b6102e560048036038101906102e09190611b9e565b6110f1565b005b61030160048036038101906102fc9190611c9e565b6111d4565b005b61030b61125a565b8060006001018190555050565b60056020528060005260406000206000915090508060000154908060010154908060020154905083565b600061034c6112e1565b60008060000160009054906101000a900473ffffffffffffffffffffffffffffffffffffffff16905060008173ffffffffffffffffffffffffffffffffffffffff1663bf40fac16040518163ffffffff1660e01b81526004016103ae90611ed7565b602060405180830381865afa1580156103cb573d6000803e3d6000fd5b505050506040513d601f19601f820116820180604052508101906103ef9190611f0c565b905060008273ffffffffffffffffffffffffffffffffffffffff1663bf40fac16040518163ffffffff1660e01b815260040161042a90611f85565b602060405180830381865afa158015610447573d6000803e3d6000fd5b505050506040513d601f19601f8201168201806040525081019061046b9190611f0c565b905060008373ffffffffffffffffffffffffffffffffffffffff1663bf40fac16040518163ffffffff1660e01b81526004016104a690611ff1565b602060405180830381865afa1580156104c3573d6000803e3d6000fd5b505050506040513d601f19601f820116820180604052508101906104e79190611f0c565b905060008473ffffffffffffffffffffffffffffffffffffffff1663bf40fac16040518163ffffffff1660e01b81526004016105229061205d565b602060405180830381865afa15801561053f573d6000803e3d6000fd5b505050506040513d601f19601f820116820180604052508101906105639190611f0c565b905060008373ffffffffffffffffffffffffffffffffffffffff16637eb0e8be896040518263ffffffff1660e01b81526004016105a09190611ccb565b602060405180830381865afa1580156105bd573d6000803e3d6000fd5b505050506040513d601f19601f820116820180604052508101906105e19190612092565b9050600060405180608001604052808b600281111561060357610602611d79565b5b81526020016000151581526020016005600085600581111561062857610627611d79565b5b600581111561063a57610639611d79565b5b815260200190815260200160002060020154815260200142815250905060008573ffffffffffffffffffffffffffffffffffffffff1663e4c7b34b8b6040518263ffffffff1660e01b81526004016106929190611ccb565b600060405180830381865afa1580156106af573d6000803e3d6000fd5b505050506040513d6000823e3d601f19601f820116820180604052508101906106d891906121a4565b9450505050503373ffffffffffffffffffffffffffffffffffffffff168773ffffffffffffffffffffffffffffffffffffffff16636352211e8c6040518263ffffffff1660e01b815260040161072e9190611ccb565b602060405180830381865afa15801561074b573d6000803e3d6000fd5b505050506040513d601f19601f8201168201806040525081019061076f9190611f0c565b73ffffffffffffffffffffffffffffffffffffffff16146107c5576040517f08c379a00000000000000000000000000000000000000000000000000000000081526004016107bc906122ad565b60405180910390fd5b60006107d033610d20565b11610810576040517f08c379a000000000000000000000000000000000000000000000000000000000815260040161080790612319565b60405180910390fd5b42811115610853576040517f08c379a000000000000000000000000000000000000000000000000000000000815260040161084a90612385565b60405180910390fd5b60006005600085600581111561086c5761086b611d79565b5b600581111561087e5761087d611d79565b5b8152602001908152602001600020600001548573ffffffffffffffffffffffffffffffffffffffff1663bc85777c60646040518263ffffffff1660e01b81526004016108ca91906123ea565b6020604051808303816000875af11580156108e9573d6000803e3d6000fd5b505050506040513d601f19601f8201168201806040525081019061090d9190612405565b111590508015610a2e578573ffffffffffffffffffffffffffffffffffffffff166340c10f19336005600088600581111561094b5761094a611d79565b5b600581111561095d5761095c611d79565b5b8152602001908152602001600020600101546040518363ffffffff1660e01b815260040161098c929190612432565b600060405180830381600087803b1580156109a657600080fd5b505af11580156109ba573d6000803e3d6000fd5b505050506001836020019015159081151581525050600560008560058111156109e6576109e5611d79565b5b60058111156109f8576109f7611d79565b5b815260200190815260200160002060010154836040018181525050610a1c83611338565b60019950505050505050505050610a45565b610a3783611338565b600099505050505050505050505b610a4d611531565b92915050565b610a5b61125a565b610a65600061154a565b565b6000610a71611621565b905060008160000160089054906101000a900460ff1615905060008260000160009054906101000a900467ffffffffffffffff1690506000808267ffffffffffffffff16148015610abf5750825b9050600060018367ffffffffffffffff16148015610af4575060003073ffffffffffffffffffffffffffffffffffffffff163b145b905081158015610b02575080155b15610b39576040517ff92ee8a900000000000000000000000000000000000000000000000000000000815260040160405180910390fd5b60018560000160006101000a81548167ffffffffffffffff021916908367ffffffffffffffff1602179055508315610b895760018560000160086101000a81548160ff0219169083151502179055505b610b9233611649565b610b9a61165d565b610ba2611667565b8315610bfe5760008560000160086101000a81548160ff0219169083151502179055507fc7f505b2f371ae2175ee4913f4499e1f2633a7b5936321eed1cdaeb6115181d26001604051610bf591906124aa565b60405180910390a15b5050505050565b610c0d61125a565b8051825114610c51576040517f08c379a0000000000000000000000000000000000000000000000000000000008152600401610c4890612511565b60405180910390fd5b60005b8251811015610ce357818181518110610c7057610c6f612531565b5b602002602001015160056000858481518110610c8f57610c8e612531565b5b60200260200101516005811115610ca957610ca8611d79565b5b6005811115610cbb57610cba611d79565b5b8152602001908152602001600020600201819055508080610cdb9061258f565b915050610c54565b505050565b600080610cf3611679565b90508060000160009054906101000a900473ffffffffffffffffffffffffffffffffffffffff1691505090565b600080600660008473ffffffffffffffffffffffffffffffffffffffff1673ffffffffffffffffffffffffffffffffffffffff1681526020019081526020016000206002015403610d78576000600101549050610e4b565b6000611c20600660008573ffffffffffffffffffffffffffffffffffffffff1673ffffffffffffffffffffffffffffffffffffffff1681526020019081526020016000206002015442610dcb91906125d7565b610dd5919061263a565b9050600081600660008673ffffffffffffffffffffffffffffffffffffffff1673ffffffffffffffffffffffffffffffffffffffff16815260200190815260200160002060010154610e27919061266b565b9050600060010154811115610e455760006001015492505050610e4b565b80925050505b919050565b60008060000160009054906101000a900473ffffffffffffffffffffffffffffffffffffffff16908060010154908060020154908060030154908060040160009054906101000a900460ff16905085565b6007602052816000526040600020602052806000526040600020600091509150508060000160009054906101000a900460ff16908060000160019054906101000a900460ff16908060010154908060020154905084565b610f0061125a565b8051825114610f44576040517f08c379a0000000000000000000000000000000000000000000000000000000008152600401610f3b90612511565b60405180910390fd5b60005b8251811015611034576064828281518110610f6557610f64612531565b5b60200260200101511115610fae576040517f08c379a0000000000000000000000000000000000000000000000000000000008152600401610fa5906126eb565b60405180910390fd5b818181518110610fc157610fc0612531565b5b602002602001015160056000858481518110610fe057610fdf612531565b5b60200260200101516005811115610ffa57610ff9611d79565b5b600581111561100c5761100b611d79565b5b815260200190815260200160002060000181905550808061102c9061258f565b915050610f47565b505050565b60066020528060005260406000206000915090508060000154908060010154908060020154908060030154905084565b61107161125a565b806000800160006101000a81548173ffffffffffffffffffffffffffffffffffffffff021916908373ffffffffffffffffffffffffffffffffffffffff16021790555050565b6110bf61125a565b600060040160009054906101000a900460ff1615600060040160006101000a81548160ff021916908315150217905550565b6110f961125a565b805182511461113d576040517f08c379a000000000000000000000000000000000000000000000000000000000815260040161113490612511565b60405180910390fd5b60005b82518110156111cf5781818151811061115c5761115b612531565b5b60200260200101516005600085848151811061117b5761117a612531565b5b6020026020010151600581111561119557611194611d79565b5b60058111156111a7576111a6611d79565b5b81526020019081526020016000206001018190555080806111c79061258f565b915050611140565b505050565b6111dc61125a565b600073ffffffffffffffffffffffffffffffffffffffff168173ffffffffffffffffffffffffffffffffffffffff160361124e5760006040517f1e4fbdf70000000000000000000000000000000000000000000000000000000081526004016112459190611c57565b60405180910390fd5b6112578161154a565b50565b6112626116a1565b73ffffffffffffffffffffffffffffffffffffffff16611280610ce8565b73ffffffffffffffffffffffffffffffffffffffff16146112df576112a36116a1565b6040517f118cdaa70000000000000000000000000000000000000000000000000000000081526004016112d69190611c57565b60405180910390fd5b565b60006112eb6116a9565b9050600281600001540361132b576040517f3ee5aeb500000000000000000000000000000000000000000000000000000000815260040160405180910390fd5b6002816000018190555050565b6001600660003373ffffffffffffffffffffffffffffffffffffffff1673ffffffffffffffffffffffffffffffffffffffff168152602001908152602001600020600301600082825461138b919061266b565b92505081905550600161139d33610d20565b6113a791906125d7565b600660003373ffffffffffffffffffffffffffffffffffffffff1673ffffffffffffffffffffffffffffffffffffffff1681526020019081526020016000206001018190555042600660003373ffffffffffffffffffffffffffffffffffffffff1673ffffffffffffffffffffffffffffffffffffffff1681526020019081526020016000206002018190555080600760003373ffffffffffffffffffffffffffffffffffffffff1673ffffffffffffffffffffffffffffffffffffffff1681526020019081526020016000206000600660003373ffffffffffffffffffffffffffffffffffffffff1673ffffffffffffffffffffffffffffffffffffffff16815260200190815260200160002060030154815260200190815260200160002060008201518160000160006101000a81548160ff021916908360028111156114f2576114f1611d79565b5b021790555060208201518160000160016101000a81548160ff021916908315150217905550604082015181600101556060820151816002015590505050565b600061153b6116a9565b90506001816000018190555050565b6000611554611679565b905060008160000160009054906101000a900473ffffffffffffffffffffffffffffffffffffffff169050828260000160006101000a81548173ffffffffffffffffffffffffffffffffffffffff021916908373ffffffffffffffffffffffffffffffffffffffff1602179055508273ffffffffffffffffffffffffffffffffffffffff168173ffffffffffffffffffffffffffffffffffffffff167f8be0079c531659141344cd1fd0a4f28419497f9722a3daafe3b4186f6b6457e060405160405180910390a3505050565b60007ff0c57e16840df040f15088dc2f81fe391c3923bec73e23a9662efc9c229c6a00905090565b6116516116d1565b61165a81611711565b50565b6116656116d1565b565b61166f6116d1565b611677611797565b565b60007f9016d09d72d40fdae2fd8ceac6b6234c7706214fd39c1cd1e609a0528c199300905090565b600033905090565b60007f9b779b17422d0df92223018b32b4d1fa46e071723d6817e2486d003becc55f00905090565b6116d96117b8565b61170f576040517fd7e6bcf800000000000000000000000000000000000000000000000000000000815260040160405180910390fd5b565b6117196116d1565b600073ffffffffffffffffffffffffffffffffffffffff168173ffffffffffffffffffffffffffffffffffffffff160361178b5760006040517f1e4fbdf70000000000000000000000000000000000000000000000000000000081526004016117829190611c57565b60405180910390fd5b6117948161154a565b50565b61179f6116d1565b60006117a96116a9565b90506001816000018190555050565b60006117c2611621565b60000160089054906101000a900460ff16905090565b6000604051905090565b600080fd5b600080fd5b6000819050919050565b6117ff816117ec565b811461180a57600080fd5b50565b60008135905061181c816117f6565b92915050565b600060208284031215611838576118376117e2565b5b60006118468482850161180d565b91505092915050565b6006811061185c57600080fd5b50565b60008135905061186e8161184f565b92915050565b60006020828403121561188a576118896117e2565b5b60006118988482850161185f565b91505092915050565b6118aa816117ec565b82525050565b60006060820190506118c560008301866118a1565b6118d260208301856118a1565b6118df60408301846118a1565b949350505050565b600381106118f457600080fd5b50565b600081359050611906816118e7565b92915050565b60008060408385031215611923576119226117e2565b5b6000611931858286016118f7565b92505060206119428582860161180d565b9150509250929050565b60008115159050919050565b6119618161194c565b82525050565b600060208201905061197c6000830184611958565b92915050565b600080fd5b6000601f19601f8301169050919050565b7f4e487b7100000000000000000000000000000000000000000000000000000000600052604160045260246000fd5b6119d082611987565b810181811067ffffffffffffffff821117156119ef576119ee611998565b5b80604052505050565b6000611a026117d8565b9050611a0e82826119c7565b919050565b600067ffffffffffffffff821115611a2e57611a2d611998565b5b602082029050602081019050919050565b600080fd5b6000611a57611a5284611a13565b6119f8565b90508083825260208201905060208402830185811115611a7a57611a79611a3f565b5b835b81811015611aa35780611a8f888261185f565b845260208401935050602081019050611a7c565b5050509392505050565b600082601f830112611ac257611ac1611982565b5b8135611ad2848260208601611a44565b91505092915050565b600067ffffffffffffffff821115611af657611af5611998565b5b602082029050602081019050919050565b6000611b1a611b1584611adb565b6119f8565b90508083825260208201905060208402830185811115611b3d57611b3c611a3f565b5b835b81811015611b665780611b52888261180d565b845260208401935050602081019050611b3f565b5050509392505050565b600082601f830112611b8557611b84611982565b5b8135611b95848260208601611b07565b91505092915050565b60008060408385031215611bb557611bb46117e2565b5b600083013567ffffffffffffffff811115611bd357611bd26117e7565b5b611bdf85828601611aad565b925050602083013567ffffffffffffffff811115611c0057611bff6117e7565b5b611c0c85828601611b70565b9150509250929050565b600073ffffffffffffffffffffffffffffffffffffffff82169050919050565b6000611c4182611c16565b9050919050565b611c5181611c36565b82525050565b6000602082019050611c6c6000830184611c48565b92915050565b611c7b81611c36565b8114611c8657600080fd5b50565b600081359050611c9881611c72565b92915050565b600060208284031215611cb457611cb36117e2565b5b6000611cc284828501611c89565b91505092915050565b6000602082019050611ce060008301846118a1565b92915050565b600060a082019050611cfb6000830188611c48565b611d0860208301876118a1565b611d1560408301866118a1565b611d2260608301856118a1565b611d2f6080830184611958565b9695505050505050565b60008060408385031215611d5057611d4f6117e2565b5b6000611d5e85828601611c89565b9250506020611d6f8582860161180d565b9150509250929050565b7f4e487b7100000000000000000000000000000000000000000000000000000000600052602160045260246000fd5b60038110611db957611db8611d79565b5b50565b6000819050611dca82611da8565b919050565b6000611dda82611dbc565b9050919050565b611dea81611dcf565b82525050565b6000608082019050611e056000830187611de1565b611e126020830186611958565b611e1f60408301856118a1565b611e2c60608301846118a1565b95945050505050565b6000608082019050611e4a60008301876118a1565b611e5760208301866118a1565b611e6460408301856118a1565b611e7160608301846118a1565b95945050505050565b600082825260208201905092915050565b7f4d6f6e7374657273000000000000000000000000000000000000000000000000600082015250565b6000611ec1600883611e7a565b9150611ecc82611e8b565b602082019050919050565b60006020820190508181036000830152611ef081611eb4565b9050919050565b600081519050611f0681611c72565b92915050565b600060208284031215611f2257611f216117e2565b5b6000611f3084828501611ef7565b91505092915050565b7f4d6f6e73746572734d6574610000000000000000000000000000000000000000600082015250565b6000611f6f600c83611e7a565b9150611f7a82611f39565b602082019050919050565b60006020820190508181036000830152611f9e81611f62565b9050919050565b7f54696d65506f74696f6e00000000000000000000000000000000000000000000600082015250565b6000611fdb600a83611e7a565b9150611fe682611fa5565b602082019050919050565b6000602082019050818103600083015261200a81611fce565b9050919050565b7f52616e646f6d697a657200000000000000000000000000000000000000000000600082015250565b6000612047600a83611e7a565b915061205282612011565b602082019050919050565b600060208201905081810360008301526120768161203a565b9050919050565b60008151905061208c8161184f565b92915050565b6000602082840312156120a8576120a76117e2565b5b60006120b68482850161207d565b91505092915050565b600080fd5b600067ffffffffffffffff8211156120df576120de611998565b5b6120e882611987565b9050602081019050919050565b60005b838110156121135780820151818401526020810190506120f8565b60008484015250505050565b600061213261212d846120c4565b6119f8565b90508281526020810184848401111561214e5761214d6120bf565b5b6121598482856120f5565b509392505050565b600082601f83011261217657612175611982565b5b815161218684826020860161211f565b91505092915050565b60008151905061219e816117f6565b92915050565b600080600080600060a086880312156121c0576121bf6117e2565b5b60006121ce8882890161207d565b955050602086015167ffffffffffffffff8111156121ef576121ee6117e7565b5b6121fb88828901612161565b945050604061220c8882890161218f565b935050606061221d8882890161218f565b925050608061222e8882890161218f565b9150509295509295909350565b7f536f6c74696365203a3a20596f7520646f206e6f74206f776e2074686174206d60008201527f6f6e737465720000000000000000000000000000000000000000000000000000602082015250565b6000612297602683611e7a565b91506122a28261223b565b604082019050919050565b600060208201905081810360008301526122c68161228a565b9050919050565b7f536f6c74696365203a3a204e6f7420656e6f75676820656e6572677900000000600082015250565b6000612303601c83611e7a565b915061230e826122cd565b602082019050919050565b60006020820190508181036000830152612332816122f6565b9050919050565b7f536f6c74696365203a3a20436f6f6c646f776e206e6f74207265616368656400600082015250565b600061236f601f83611e7a565b915061237a82612339565b602082019050919050565b6000602082019050818103600083015261239e81612362565b9050919050565b6000819050919050565b6000819050919050565b60006123d46123cf6123ca846123a5565b6123af565b6117ec565b9050919050565b6123e4816123b9565b82525050565b60006020820190506123ff60008301846123db565b92915050565b60006020828403121561241b5761241a6117e2565b5b60006124298482850161218f565b91505092915050565b60006040820190506124476000830185611c48565b61245460208301846118a1565b9392505050565b6000819050919050565b600067ffffffffffffffff82169050919050565b600061249461248f61248a8461245b565b6123af565b612465565b9050919050565b6124a481612479565b82525050565b60006020820190506124bf600083018461249b565b92915050565b7f536f6c74696365203a3a204172726179206c656e677468206d69736d61746368600082015250565b60006124fb602083611e7a565b9150612506826124c5565b602082019050919050565b6000602082019050818103600083015261252a816124ee565b9050919050565b7f4e487b7100000000000000000000000000000000000000000000000000000000600052603260045260246000fd5b7f4e487b7100000000000000000000000000000000000000000000000000000000600052601160045260246000fd5b600061259a826117ec565b91507fffffffffffffffffffffffffffffffffffffffffffffffffffffffffffffffff82036125cc576125cb612560565b5b600182019050919050565b60006125e2826117ec565b91506125ed836117ec565b925082820390508181111561260557612604612560565b5b92915050565b7f4e487b7100000000000000000000000000000000000000000000000000000000600052601260045260246000fd5b6000612645826117ec565b9150612650836117ec565b9250826126605761265f61260b565b5b828204905092915050565b6000612676826117ec565b9150612681836117ec565b925082820190508082111561269957612698612560565b5b92915050565b7f536f6c74696365203a3a2043616e6e6f7420736574206265796f6e6420313030600082015250565b60006126d5602083611e7a565b91506126e08261269f565b602082019050919050565b60006020820190508181036000830152612704816126c8565b905091905056fea26469706673582212201a394baf28059366c7d020b5887b1b1282099ac5e248632716e6195d12a3b33a64736f6c63430008140033",
  "linkReferences": {},
  "deployedLinkReferences": {}
}