{
  "_format": "hh-sol-artifact-1",
  "contractName": "Game",
  "sourceName": "contracts/Game.sol",
  "abi": [
    {
      "inputs": [],
      "name": "InvalidInitialization",
      "type": "error"
    },
    {
      "inputs": [],
      "name": "NotInitializing",
      "type": "error"
    },
    {
      "inputs": [
        {
          "internalType": "address",
          "name": "owner",
          "type": "address"
        }
      ],
      "name": "OwnableInvalidOwner",
      "type": "error"
    },
    {
      "inputs": [
        {
          "internalType": "address",
          "name": "account",
          "type": "address"
        }
      ],
      "name": "OwnableUnauthorizedAccount",
      "type": "error"
    },
    {
      "inputs": [],
      "name": "ReentrancyGuardReentrantCall",
      "type": "error"
    },
    {
      "anonymous": false,
      "inputs": [
        {
          "indexed": false,
          "internalType": "uint64",
          "name": "version",
          "type": "uint64"
        }
      ],
      "name": "Initialized",
      "type": "event"
    },
    {
      "anonymous": false,
      "inputs": [
        {
          "indexed": true,
          "internalType": "address",
          "name": "previousOwner",
          "type": "address"
        },
        {
          "indexed": true,
          "internalType": "address",
          "name": "newOwner",
          "type": "address"
        }
      ],
      "name": "OwnershipTransferred",
      "type": "event"
    },
    {
      "inputs": [
        {
          "internalType": "address",
          "name": "",
          "type": "address"
        },
        {
          "internalType": "uint256",
          "name": "",
          "type": "uint256"
        }
      ],
      "name": "gameRecord",
      "outputs": [
        {
          "internalType": "enum IGame.Mode",
          "name": "mode",
          "type": "uint8"
        },
        {
          "internalType": "bool",
          "name": "result",
          "type": "bool"
        },
        {
          "internalType": "uint256",
          "name": "reward",
          "type": "uint256"
        },
        {
          "internalType": "uint256",
          "name": "time",
          "type": "uint256"
        }
      ],
      "stateMutability": "view",
      "type": "function"
    },
    {
      "inputs": [],
      "name": "getEnergy",
      "outputs": [
        {
          "internalType": "uint256",
          "name": "",
          "type": "uint256"
        }
      ],
      "stateMutability": "view",
      "type": "function"
    },
    {
      "inputs": [],
      "name": "initialize",
      "outputs": [],
      "stateMutability": "nonpayable",
      "type": "function"
    },
    {
      "inputs": [
        {
          "internalType": "enum IMonstersMeta.Evolution",
          "name": "",
          "type": "uint8"
        }
      ],
      "name": "monsters",
      "outputs": [
        {
          "internalType": "uint256",
          "name": "winrate",
          "type": "uint256"
        },
        {
          "internalType": "uint256",
          "name": "winReward",
          "type": "uint256"
        },
        {
          "internalType": "uint256",
          "name": "loseReward",
          "type": "uint256"
        }
      ],
      "stateMutability": "view",
      "type": "function"
    },
    {
      "inputs": [],
      "name": "owner",
      "outputs": [
        {
          "internalType": "address",
          "name": "",
          "type": "address"
        }
      ],
      "stateMutability": "view",
      "type": "function"
    },
    {
      "inputs": [
        {
          "internalType": "enum IGame.Mode",
          "name": "_mode",
          "type": "uint8"
        },
        {
          "internalType": "uint256",
          "name": "_tokenId",
          "type": "uint256"
        }
      ],
      "name": "play",
      "outputs": [
        {
          "internalType": "bool",
          "name": "",
          "type": "bool"
        }
      ],
      "stateMutability": "nonpayable",
      "type": "function"
    },
    {
      "inputs": [],
      "name": "renounceOwnership",
      "outputs": [],
      "stateMutability": "nonpayable",
      "type": "function"
    },
    {
      "inputs": [
        {
          "internalType": "enum IMonstersMeta.Evolution[]",
          "name": "_evo",
          "type": "uint8[]"
        },
        {
          "internalType": "uint256[]",
          "name": "_loseReward",
          "type": "uint256[]"
        }
      ],
      "name": "setLoseReward",
      "outputs": [],
      "stateMutability": "nonpayable",
      "type": "function"
    },
    {
      "inputs": [],
      "name": "setMaintenance",
      "outputs": [],
      "stateMutability": "nonpayable",
      "type": "function"
    },
    {
      "inputs": [
        {
          "internalType": "uint256",
          "name": "_maxEnergy",
          "type": "uint256"
        }
      ],
      "name": "setMaxEnergy",
      "outputs": [],
      "stateMutability": "nonpayable",
      "type": "function"
    },
    {
      "inputs": [
        {
          "internalType": "address",
          "name": "_contractRegistry",
          "type": "address"
        }
      ],
      "name": "setRegistry",
      "outputs": [],
      "stateMutability": "nonpayable",
      "type": "function"
    },
    {
      "inputs": [
        {
          "internalType": "enum IMonstersMeta.Evolution[]",
          "name": "_evo",
          "type": "uint8[]"
        },
        {
          "internalType": "uint256[]",
          "name": "_winrate",
          "type": "uint256[]"
        }
      ],
      "name": "setWinRate",
      "outputs": [],
      "stateMutability": "nonpayable",
      "type": "function"
    },
    {
      "inputs": [
        {
          "internalType": "enum IMonstersMeta.Evolution[]",
          "name": "_evo",
          "type": "uint8[]"
        },
        {
          "internalType": "uint256[]",
          "name": "_winReward",
          "type": "uint256[]"
        }
      ],
      "name": "setWinReward",
      "outputs": [],
      "stateMutability": "nonpayable",
      "type": "function"
    },
    {
      "inputs": [],
      "name": "system",
      "outputs": [
        {
          "internalType": "address",
          "name": "contractRegistry",
          "type": "address"
        },
        {
          "internalType": "uint256",
          "name": "maxEnergy",
          "type": "uint256"
        },
        {
          "internalType": "uint256",
          "name": "userPercent",
          "type": "uint256"
        },
        {
          "internalType": "uint256",
          "name": "uplinePercent",
          "type": "uint256"
        },
        {
          "internalType": "bool",
          "name": "isUndermaintenance",
          "type": "bool"
        }
      ],
      "stateMutability": "view",
      "type": "function"
    },
    {
      "inputs": [
        {
          "internalType": "address",
          "name": "newOwner",
          "type": "address"
        }
      ],
      "name": "transferOwnership",
      "outputs": [],
      "stateMutability": "nonpayable",
      "type": "function"
    },
    {
      "inputs": [
        {
          "internalType": "address",
          "name": "",
          "type": "address"
        }
      ],
      "name": "users",
      "outputs": [
        {
          "internalType": "uint256",
          "name": "earnings",
          "type": "uint256"
        },
        {
          "internalType": "uint256",
          "name": "energy",
          "type": "uint256"
        },
        {
          "internalType": "uint256",
          "name": "lastTimeOfPlay",
          "type": "uint256"
        },
        {
          "internalType": "uint256",
          "name": "gameCount",
          "type": "uint256"
        }
      ],
      "stateMutability": "view",
      "type": "function"
    }
  ],
  "bytecode": "0x608060405234801561001057600080fd5b5061272b806100206000396000f3fe608060405234801561001057600080fd5b50600436106101005760003560e01c80639b1e733e11610097578063ac9c102611610066578063ac9c102614610291578063c02e70571461029b578063ee50b216146102b9578063f2fde38b146102d557610100565b80639b1e733e146101f3578063a069d05f14610226578063a87430ba14610242578063a91ee0dc1461027557610100565b80638129fc1c116100d35780638129fc1c1461018d5780638b63538c146101975780638da5cb5b146101b357806395bf75fd146101d157610100565b8063314040ad1461010557806341e4cb4614610121578063665da33814610153578063715018a614610183575b600080fd5b61011f600480360381019061011a919061180c565b6102f1565b005b61013b6004803603810190610136919061185e565b610306565b60405161014a9392919061189a565b60405180910390f35b61016d600480360381019061016891906118f6565b610330565b60405161017a9190611951565b60405180910390f35b61018b610a40565b005b610195610a54565b005b6101b160048036038101906101ac9190611b88565b610bf2565b005b6101bb610cd5565b6040516101c89190611c41565b60405180910390f35b6101d9610d0d565b6040516101ea959493929190611c5c565b60405180910390f35b61020d60048036038101906102089190611cdb565b610d5e565b60405161021d9493929190611d92565b60405180910390f35b610240600480360381019061023b9190611b88565b610db5565b005b61025c60048036038101906102579190611dd7565b610ef6565b60405161026c9493929190611e04565b60405180910390f35b61028f600480360381019061028a9190611dd7565b610f26565b005b610299610f74565b005b6102a3610fae565b6040516102b09190611e49565b60405180910390f35b6102d360048036038101906102ce9190611b88565b6110dc565b005b6102ef60048036038101906102ea9190611dd7565b6111bf565b005b6102f9611245565b8060006001018190555050565b60056020528060005260406000206000915090508060000154908060010154908060020154905083565b600061033a6112cc565b60008060000160009054906101000a900473ffffffffffffffffffffffffffffffffffffffff16905060008173ffffffffffffffffffffffffffffffffffffffff1663bf40fac16040518163ffffffff1660e01b815260040161039c90611ec1565b602060405180830381865afa1580156103b9573d6000803e3d6000fd5b505050506040513d601f19601f820116820180604052508101906103dd9190611ef6565b905060008273ffffffffffffffffffffffffffffffffffffffff1663bf40fac16040518163ffffffff1660e01b815260040161041890611f6f565b602060405180830381865afa158015610435573d6000803e3d6000fd5b505050506040513d601f19601f820116820180604052508101906104599190611ef6565b905060008373ffffffffffffffffffffffffffffffffffffffff1663bf40fac16040518163ffffffff1660e01b815260040161049490611fdb565b602060405180830381865afa1580156104b1573d6000803e3d6000fd5b505050506040513d601f19601f820116820180604052508101906104d59190611ef6565b905060008473ffffffffffffffffffffffffffffffffffffffff1663bf40fac16040518163ffffffff1660e01b815260040161051090612047565b602060405180830381865afa15801561052d573d6000803e3d6000fd5b505050506040513d601f19601f820116820180604052508101906105519190611ef6565b905060008373ffffffffffffffffffffffffffffffffffffffff16637eb0e8be896040518263ffffffff1660e01b815260040161058e9190611e49565b602060405180830381865afa1580156105ab573d6000803e3d6000fd5b505050506040513d601f19601f820116820180604052508101906105cf919061207c565b9050600060405180608001604052808b60028111156105f1576105f0611d1b565b5b81526020016000151581526020016005600085600581111561061657610615611d1b565b5b600581111561062857610627611d1b565b5b815260200190815260200160002060020154815260200142815250905060008573ffffffffffffffffffffffffffffffffffffffff1663e4c7b34b8b6040518263ffffffff1660e01b81526004016106809190611e49565b600060405180830381865afa15801561069d573d6000803e3d6000fd5b505050506040513d6000823e3d601f19601f820116820180604052508101906106c6919061218e565b9450505050503373ffffffffffffffffffffffffffffffffffffffff168773ffffffffffffffffffffffffffffffffffffffff16636352211e8c6040518263ffffffff1660e01b815260040161071c9190611e49565b602060405180830381865afa158015610739573d6000803e3d6000fd5b505050506040513d601f19601f8201168201806040525081019061075d9190611ef6565b73ffffffffffffffffffffffffffffffffffffffff16146107b3576040517f08c379a00000000000000000000000000000000000000000000000000000000081526004016107aa90612297565b60405180910390fd5b60006107bd610fae565b116107fd576040517f08c379a00000000000000000000000000000000000000000000000000000000081526004016107f490612303565b60405180910390fd5b42811115610840576040517f08c379a00000000000000000000000000000000000000000000000000000000081526004016108379061236f565b60405180910390fd5b60006005600085600581111561085957610858611d1b565b5b600581111561086b5761086a611d1b565b5b8152602001908152602001600020600001548573ffffffffffffffffffffffffffffffffffffffff1663bc85777c60646040518263ffffffff1660e01b81526004016108b791906123d4565b6020604051808303816000875af11580156108d6573d6000803e3d6000fd5b505050506040513d601f19601f820116820180604052508101906108fa91906123ef565b111590508015610a1b578573ffffffffffffffffffffffffffffffffffffffff166340c10f19336005600088600581111561093857610937611d1b565b5b600581111561094a57610949611d1b565b5b8152602001908152602001600020600101546040518363ffffffff1660e01b815260040161097992919061241c565b600060405180830381600087803b15801561099357600080fd5b505af11580156109a7573d6000803e3d6000fd5b505050506001836020019015159081151581525050600560008560058111156109d3576109d2611d1b565b5b60058111156109e5576109e4611d1b565b5b815260200190815260200160002060010154836040018181525050610a0983611323565b60019950505050505050505050610a32565b610a2483611323565b600099505050505050505050505b610a3a61151b565b92915050565b610a48611245565b610a526000611534565b565b6000610a5e61160b565b905060008160000160089054906101000a900460ff1615905060008260000160009054906101000a900467ffffffffffffffff1690506000808267ffffffffffffffff16148015610aac5750825b9050600060018367ffffffffffffffff16148015610ae1575060003073ffffffffffffffffffffffffffffffffffffffff163b145b905081158015610aef575080155b15610b26576040517ff92ee8a900000000000000000000000000000000000000000000000000000000815260040160405180910390fd5b60018560000160006101000a81548167ffffffffffffffff021916908367ffffffffffffffff1602179055508315610b765760018560000160086101000a81548160ff0219169083151502179055505b610b7f33611633565b610b87611647565b610b8f611651565b8315610beb5760008560000160086101000a81548160ff0219169083151502179055507fc7f505b2f371ae2175ee4913f4499e1f2633a7b5936321eed1cdaeb6115181d26001604051610be29190612494565b60405180910390a15b5050505050565b610bfa611245565b8051825114610c3e576040517f08c379a0000000000000000000000000000000000000000000000000000000008152600401610c35906124fb565b60405180910390fd5b60005b8251811015610cd057818181518110610c5d57610c5c61251b565b5b602002602001015160056000858481518110610c7c57610c7b61251b565b5b60200260200101516005811115610c9657610c95611d1b565b5b6005811115610ca857610ca7611d1b565b5b8152602001908152602001600020600201819055508080610cc890612579565b915050610c41565b505050565b600080610ce0611663565b90508060000160009054906101000a900473ffffffffffffffffffffffffffffffffffffffff1691505090565b60008060000160009054906101000a900473ffffffffffffffffffffffffffffffffffffffff16908060010154908060020154908060030154908060040160009054906101000a900460ff16905085565b6007602052816000526040600020602052806000526040600020600091509150508060000160009054906101000a900460ff16908060000160019054906101000a900460ff16908060010154908060020154905084565b610dbd611245565b8051825114610e01576040517f08c379a0000000000000000000000000000000000000000000000000000000008152600401610df8906124fb565b60405180910390fd5b60005b8251811015610ef1576064828281518110610e2257610e2161251b565b5b60200260200101511115610e6b576040517f08c379a0000000000000000000000000000000000000000000000000000000008152600401610e629061260d565b60405180910390fd5b818181518110610e7e57610e7d61251b565b5b602002602001015160056000858481518110610e9d57610e9c61251b565b5b60200260200101516005811115610eb757610eb6611d1b565b5b6005811115610ec957610ec8611d1b565b5b8152602001908152602001600020600001819055508080610ee990612579565b915050610e04565b505050565b60066020528060005260406000206000915090508060000154908060010154908060020154908060030154905084565b610f2e611245565b806000800160006101000a81548173ffffffffffffffffffffffffffffffffffffffff021916908373ffffffffffffffffffffffffffffffffffffffff16021790555050565b610f7c611245565b600060040160009054906101000a900460ff1615600060040160006101000a81548160ff021916908315150217905550565b600080600660003373ffffffffffffffffffffffffffffffffffffffff1673ffffffffffffffffffffffffffffffffffffffff16815260200190815260200160002060020154036110065760006001015490506110d9565b6000611c20600660003373ffffffffffffffffffffffffffffffffffffffff1673ffffffffffffffffffffffffffffffffffffffff1681526020019081526020016000206002015442611059919061262d565b6110639190612690565b9050600081600660003373ffffffffffffffffffffffffffffffffffffffff1673ffffffffffffffffffffffffffffffffffffffff168152602001908152602001600020600101546110b591906126c1565b90506000600101548111156110d357600060010154925050506110d9565b80925050505b90565b6110e4611245565b8051825114611128576040517f08c379a000000000000000000000000000000000000000000000000000000000815260040161111f906124fb565b60405180910390fd5b60005b82518110156111ba578181815181106111475761114661251b565b5b6020026020010151600560008584815181106111665761116561251b565b5b602002602001015160058111156111805761117f611d1b565b5b600581111561119257611191611d1b565b5b81526020019081526020016000206001018190555080806111b290612579565b91505061112b565b505050565b6111c7611245565b600073ffffffffffffffffffffffffffffffffffffffff168173ffffffffffffffffffffffffffffffffffffffff16036112395760006040517f1e4fbdf70000000000000000000000000000000000000000000000000000000081526004016112309190611c41565b60405180910390fd5b61124281611534565b50565b61124d61168b565b73ffffffffffffffffffffffffffffffffffffffff1661126b610cd5565b73ffffffffffffffffffffffffffffffffffffffff16146112ca5761128e61168b565b6040517f118cdaa70000000000000000000000000000000000000000000000000000000081526004016112c19190611c41565b60405180910390fd5b565b60006112d6611693565b90506002816000015403611316576040517f3ee5aeb500000000000000000000000000000000000000000000000000000000815260040160405180910390fd5b6002816000018190555050565b6001600660003373ffffffffffffffffffffffffffffffffffffffff1673ffffffffffffffffffffffffffffffffffffffff168152602001908152602001600020600301600082825461137691906126c1565b925050819055506001611387610fae565b611391919061262d565b600660003373ffffffffffffffffffffffffffffffffffffffff1673ffffffffffffffffffffffffffffffffffffffff1681526020019081526020016000206001018190555042600660003373ffffffffffffffffffffffffffffffffffffffff1673ffffffffffffffffffffffffffffffffffffffff1681526020019081526020016000206002018190555080600760003373ffffffffffffffffffffffffffffffffffffffff1673ffffffffffffffffffffffffffffffffffffffff1681526020019081526020016000206000600660003373ffffffffffffffffffffffffffffffffffffffff1673ffffffffffffffffffffffffffffffffffffffff16815260200190815260200160002060030154815260200190815260200160002060008201518160000160006101000a81548160ff021916908360028111156114dc576114db611d1b565b5b021790555060208201518160000160016101000a81548160ff021916908315150217905550604082015181600101556060820151816002015590505050565b6000611525611693565b90506001816000018190555050565b600061153e611663565b905060008160000160009054906101000a900473ffffffffffffffffffffffffffffffffffffffff169050828260000160006101000a81548173ffffffffffffffffffffffffffffffffffffffff021916908373ffffffffffffffffffffffffffffffffffffffff1602179055508273ffffffffffffffffffffffffffffffffffffffff168173ffffffffffffffffffffffffffffffffffffffff167f8be0079c531659141344cd1fd0a4f28419497f9722a3daafe3b4186f6b6457e060405160405180910390a3505050565b60007ff0c57e16840df040f15088dc2f81fe391c3923bec73e23a9662efc9c229c6a00905090565b61163b6116bb565b611644816116fb565b50565b61164f6116bb565b565b6116596116bb565b611661611781565b565b60007f9016d09d72d40fdae2fd8ceac6b6234c7706214fd39c1cd1e609a0528c199300905090565b600033905090565b60007f9b779b17422d0df92223018b32b4d1fa46e071723d6817e2486d003becc55f00905090565b6116c36117a2565b6116f9576040517fd7e6bcf800000000000000000000000000000000000000000000000000000000815260040160405180910390fd5b565b6117036116bb565b600073ffffffffffffffffffffffffffffffffffffffff168173ffffffffffffffffffffffffffffffffffffffff16036117755760006040517f1e4fbdf700000000000000000000000000000000000000000000000000000000815260040161176c9190611c41565b60405180910390fd5b61177e81611534565b50565b6117896116bb565b6000611793611693565b90506001816000018190555050565b60006117ac61160b565b60000160089054906101000a900460ff16905090565b6000604051905090565b600080fd5b600080fd5b6000819050919050565b6117e9816117d6565b81146117f457600080fd5b50565b600081359050611806816117e0565b92915050565b600060208284031215611822576118216117cc565b5b6000611830848285016117f7565b91505092915050565b6006811061184657600080fd5b50565b60008135905061185881611839565b92915050565b600060208284031215611874576118736117cc565b5b600061188284828501611849565b91505092915050565b611894816117d6565b82525050565b60006060820190506118af600083018661188b565b6118bc602083018561188b565b6118c9604083018461188b565b949350505050565b600381106118de57600080fd5b50565b6000813590506118f0816118d1565b92915050565b6000806040838503121561190d5761190c6117cc565b5b600061191b858286016118e1565b925050602061192c858286016117f7565b9150509250929050565b60008115159050919050565b61194b81611936565b82525050565b60006020820190506119666000830184611942565b92915050565b600080fd5b6000601f19601f8301169050919050565b7f4e487b7100000000000000000000000000000000000000000000000000000000600052604160045260246000fd5b6119ba82611971565b810181811067ffffffffffffffff821117156119d9576119d8611982565b5b80604052505050565b60006119ec6117c2565b90506119f882826119b1565b919050565b600067ffffffffffffffff821115611a1857611a17611982565b5b602082029050602081019050919050565b600080fd5b6000611a41611a3c846119fd565b6119e2565b90508083825260208201905060208402830185811115611a6457611a63611a29565b5b835b81811015611a8d5780611a798882611849565b845260208401935050602081019050611a66565b5050509392505050565b600082601f830112611aac57611aab61196c565b5b8135611abc848260208601611a2e565b91505092915050565b600067ffffffffffffffff821115611ae057611adf611982565b5b602082029050602081019050919050565b6000611b04611aff84611ac5565b6119e2565b90508083825260208201905060208402830185811115611b2757611b26611a29565b5b835b81811015611b505780611b3c88826117f7565b845260208401935050602081019050611b29565b5050509392505050565b600082601f830112611b6f57611b6e61196c565b5b8135611b7f848260208601611af1565b91505092915050565b60008060408385031215611b9f57611b9e6117cc565b5b600083013567ffffffffffffffff811115611bbd57611bbc6117d1565b5b611bc985828601611a97565b925050602083013567ffffffffffffffff811115611bea57611be96117d1565b5b611bf685828601611b5a565b9150509250929050565b600073ffffffffffffffffffffffffffffffffffffffff82169050919050565b6000611c2b82611c00565b9050919050565b611c3b81611c20565b82525050565b6000602082019050611c566000830184611c32565b92915050565b600060a082019050611c716000830188611c32565b611c7e602083018761188b565b611c8b604083018661188b565b611c98606083018561188b565b611ca56080830184611942565b9695505050505050565b611cb881611c20565b8114611cc357600080fd5b50565b600081359050611cd581611caf565b92915050565b60008060408385031215611cf257611cf16117cc565b5b6000611d0085828601611cc6565b9250506020611d11858286016117f7565b9150509250929050565b7f4e487b7100000000000000000000000000000000000000000000000000000000600052602160045260246000fd5b60038110611d5b57611d5a611d1b565b5b50565b6000819050611d6c82611d4a565b919050565b6000611d7c82611d5e565b9050919050565b611d8c81611d71565b82525050565b6000608082019050611da76000830187611d83565b611db46020830186611942565b611dc1604083018561188b565b611dce606083018461188b565b95945050505050565b600060208284031215611ded57611dec6117cc565b5b6000611dfb84828501611cc6565b91505092915050565b6000608082019050611e19600083018761188b565b611e26602083018661188b565b611e33604083018561188b565b611e40606083018461188b565b95945050505050565b6000602082019050611e5e600083018461188b565b92915050565b600082825260208201905092915050565b7f4d6f6e7374657273000000000000000000000000000000000000000000000000600082015250565b6000611eab600883611e64565b9150611eb682611e75565b602082019050919050565b60006020820190508181036000830152611eda81611e9e565b9050919050565b600081519050611ef081611caf565b92915050565b600060208284031215611f0c57611f0b6117cc565b5b6000611f1a84828501611ee1565b91505092915050565b7f4d6f6e73746572734d6574610000000000000000000000000000000000000000600082015250565b6000611f59600c83611e64565b9150611f6482611f23565b602082019050919050565b60006020820190508181036000830152611f8881611f4c565b9050919050565b7f54696d65506f74696f6e00000000000000000000000000000000000000000000600082015250565b6000611fc5600a83611e64565b9150611fd082611f8f565b602082019050919050565b60006020820190508181036000830152611ff481611fb8565b9050919050565b7f52616e646f6d697a657200000000000000000000000000000000000000000000600082015250565b6000612031600a83611e64565b915061203c82611ffb565b602082019050919050565b6000602082019050818103600083015261206081612024565b9050919050565b60008151905061207681611839565b92915050565b600060208284031215612092576120916117cc565b5b60006120a084828501612067565b91505092915050565b600080fd5b600067ffffffffffffffff8211156120c9576120c8611982565b5b6120d282611971565b9050602081019050919050565b60005b838110156120fd5780820151818401526020810190506120e2565b60008484015250505050565b600061211c612117846120ae565b6119e2565b905082815260208101848484011115612138576121376120a9565b5b6121438482856120df565b509392505050565b600082601f8301126121605761215f61196c565b5b8151612170848260208601612109565b91505092915050565b600081519050612188816117e0565b92915050565b600080600080600060a086880312156121aa576121a96117cc565b5b60006121b888828901612067565b955050602086015167ffffffffffffffff8111156121d9576121d86117d1565b5b6121e58882890161214b565b94505060406121f688828901612179565b935050606061220788828901612179565b925050608061221888828901612179565b9150509295509295909350565b7f536f6c74696365203a3a20596f7520646f206e6f74206f776e2074686174206d60008201527f6f6e737465720000000000000000000000000000000000000000000000000000602082015250565b6000612281602683611e64565b915061228c82612225565b604082019050919050565b600060208201905081810360008301526122b081612274565b9050919050565b7f536f6c74696365203a3a204e6f7420656e6f75676820656e6572677900000000600082015250565b60006122ed601c83611e64565b91506122f8826122b7565b602082019050919050565b6000602082019050818103600083015261231c816122e0565b9050919050565b7f536f6c74696365203a3a20436f6f6c646f776e206e6f74207265616368656400600082015250565b6000612359601f83611e64565b915061236482612323565b602082019050919050565b600060208201905081810360008301526123888161234c565b9050919050565b6000819050919050565b6000819050919050565b60006123be6123b96123b48461238f565b612399565b6117d6565b9050919050565b6123ce816123a3565b82525050565b60006020820190506123e960008301846123c5565b92915050565b600060208284031215612405576124046117cc565b5b600061241384828501612179565b91505092915050565b60006040820190506124316000830185611c32565b61243e602083018461188b565b9392505050565b6000819050919050565b600067ffffffffffffffff82169050919050565b600061247e61247961247484612445565b612399565b61244f565b9050919050565b61248e81612463565b82525050565b60006020820190506124a96000830184612485565b92915050565b7f536f6c74696365203a3a204172726179206c656e677468206d69736d61746368600082015250565b60006124e5602083611e64565b91506124f0826124af565b602082019050919050565b60006020820190508181036000830152612514816124d8565b9050919050565b7f4e487b7100000000000000000000000000000000000000000000000000000000600052603260045260246000fd5b7f4e487b7100000000000000000000000000000000000000000000000000000000600052601160045260246000fd5b6000612584826117d6565b91507fffffffffffffffffffffffffffffffffffffffffffffffffffffffffffffffff82036125b6576125b561254a565b5b600182019050919050565b7f536f6c74696365203a3a2043616e6e6f7420736574206265796f6e6420313030600082015250565b60006125f7602083611e64565b9150612602826125c1565b602082019050919050565b60006020820190508181036000830152612626816125ea565b9050919050565b6000612638826117d6565b9150612643836117d6565b925082820390508181111561265b5761265a61254a565b5b92915050565b7f4e487b7100000000000000000000000000000000000000000000000000000000600052601260045260246000fd5b600061269b826117d6565b91506126a6836117d6565b9250826126b6576126b5612661565b5b828204905092915050565b60006126cc826117d6565b91506126d7836117d6565b92508282019050808211156126ef576126ee61254a565b5b9291505056fea26469706673582212204bec0904db9699932e7e8bcd9cd24433d98d931bff0c09cde6e25b410acc409b64736f6c63430008140033",
  "linkReferences": {},
  "deployedLinkReferences": {}
}