{
  "_format": "hh-sol-artifact-1",
  "contractName": "Monsters",
  "sourceName": "contracts/Monsters.sol",
  "abi": [
    {
      "inputs": [],
      "name": "ERC721EnumerableForbiddenBatchMint",
      "type": "error"
    },
    {
      "inputs": [
        {
          "internalType": "address",
          "name": "sender",
          "type": "address"
        },
        {
          "internalType": "uint256",
          "name": "tokenId",
          "type": "uint256"
        },
        {
          "internalType": "address",
          "name": "owner",
          "type": "address"
        }
      ],
      "name": "ERC721IncorrectOwner",
      "type": "error"
    },
    {
      "inputs": [
        {
          "internalType": "address",
          "name": "operator",
          "type": "address"
        },
        {
          "internalType": "uint256",
          "name": "tokenId",
          "type": "uint256"
        }
      ],
      "name": "ERC721InsufficientApproval",
      "type": "error"
    },
    {
      "inputs": [
        {
          "internalType": "address",
          "name": "approver",
          "type": "address"
        }
      ],
      "name": "ERC721InvalidApprover",
      "type": "error"
    },
    {
      "inputs": [
        {
          "internalType": "address",
          "name": "operator",
          "type": "address"
        }
      ],
      "name": "ERC721InvalidOperator",
      "type": "error"
    },
    {
      "inputs": [
        {
          "internalType": "address",
          "name": "owner",
          "type": "address"
        }
      ],
      "name": "ERC721InvalidOwner",
      "type": "error"
    },
    {
      "inputs": [
        {
          "internalType": "address",
          "name": "receiver",
          "type": "address"
        }
      ],
      "name": "ERC721InvalidReceiver",
      "type": "error"
    },
    {
      "inputs": [
        {
          "internalType": "address",
          "name": "sender",
          "type": "address"
        }
      ],
      "name": "ERC721InvalidSender",
      "type": "error"
    },
    {
      "inputs": [
        {
          "internalType": "uint256",
          "name": "tokenId",
          "type": "uint256"
        }
      ],
      "name": "ERC721NonexistentToken",
      "type": "error"
    },
    {
      "inputs": [
        {
          "internalType": "address",
          "name": "owner",
          "type": "address"
        },
        {
          "internalType": "uint256",
          "name": "index",
          "type": "uint256"
        }
      ],
      "name": "ERC721OutOfBoundsIndex",
      "type": "error"
    },
    {
      "inputs": [],
      "name": "InvalidInitialization",
      "type": "error"
    },
    {
      "inputs": [],
      "name": "NotInitializing",
      "type": "error"
    },
    {
      "inputs": [
        {
          "internalType": "address",
          "name": "owner",
          "type": "address"
        }
      ],
      "name": "OwnableInvalidOwner",
      "type": "error"
    },
    {
      "inputs": [
        {
          "internalType": "address",
          "name": "account",
          "type": "address"
        }
      ],
      "name": "OwnableUnauthorizedAccount",
      "type": "error"
    },
    {
      "anonymous": false,
      "inputs": [
        {
          "indexed": true,
          "internalType": "address",
          "name": "owner",
          "type": "address"
        },
        {
          "indexed": true,
          "internalType": "address",
          "name": "approved",
          "type": "address"
        },
        {
          "indexed": true,
          "internalType": "uint256",
          "name": "tokenId",
          "type": "uint256"
        }
      ],
      "name": "Approval",
      "type": "event"
    },
    {
      "anonymous": false,
      "inputs": [
        {
          "indexed": true,
          "internalType": "address",
          "name": "owner",
          "type": "address"
        },
        {
          "indexed": true,
          "internalType": "address",
          "name": "operator",
          "type": "address"
        },
        {
          "indexed": false,
          "internalType": "bool",
          "name": "approved",
          "type": "bool"
        }
      ],
      "name": "ApprovalForAll",
      "type": "event"
    },
    {
      "anonymous": false,
      "inputs": [
        {
          "indexed": false,
          "internalType": "uint64",
          "name": "version",
          "type": "uint64"
        }
      ],
      "name": "Initialized",
      "type": "event"
    },
    {
      "anonymous": false,
      "inputs": [
        {
          "indexed": true,
          "internalType": "address",
          "name": "previousOwner",
          "type": "address"
        },
        {
          "indexed": true,
          "internalType": "address",
          "name": "newOwner",
          "type": "address"
        }
      ],
      "name": "OwnershipTransferred",
      "type": "event"
    },
    {
      "anonymous": false,
      "inputs": [
        {
          "indexed": true,
          "internalType": "address",
          "name": "from",
          "type": "address"
        },
        {
          "indexed": true,
          "internalType": "address",
          "name": "to",
          "type": "address"
        },
        {
          "indexed": true,
          "internalType": "uint256",
          "name": "tokenId",
          "type": "uint256"
        }
      ],
      "name": "Transfer",
      "type": "event"
    },
    {
      "inputs": [
        {
          "internalType": "address",
          "name": "to",
          "type": "address"
        },
        {
          "internalType": "uint256",
          "name": "tokenId",
          "type": "uint256"
        }
      ],
      "name": "approve",
      "outputs": [],
      "stateMutability": "nonpayable",
      "type": "function"
    },
    {
      "inputs": [
        {
          "internalType": "address",
          "name": "owner",
          "type": "address"
        }
      ],
      "name": "balanceOf",
      "outputs": [
        {
          "internalType": "uint256",
          "name": "",
          "type": "uint256"
        }
      ],
      "stateMutability": "view",
      "type": "function"
    },
    {
      "inputs": [
        {
          "internalType": "uint256",
          "name": "tokenId",
          "type": "uint256"
        }
      ],
      "name": "burn",
      "outputs": [],
      "stateMutability": "nonpayable",
      "type": "function"
    },
    {
      "inputs": [
        {
          "internalType": "uint256[]",
          "name": "_tokenIDs",
          "type": "uint256[]"
        }
      ],
      "name": "burn",
      "outputs": [],
      "stateMutability": "nonpayable",
      "type": "function"
    },
    {
      "inputs": [
        {
          "internalType": "uint256",
          "name": "tokenId",
          "type": "uint256"
        }
      ],
      "name": "getApproved",
      "outputs": [
        {
          "internalType": "address",
          "name": "",
          "type": "address"
        }
      ],
      "stateMutability": "view",
      "type": "function"
    },
    {
      "inputs": [],
      "name": "initialize",
      "outputs": [],
      "stateMutability": "nonpayable",
      "type": "function"
    },
    {
      "inputs": [
        {
          "internalType": "address",
          "name": "owner",
          "type": "address"
        },
        {
          "internalType": "address",
          "name": "operator",
          "type": "address"
        }
      ],
      "name": "isApprovedForAll",
      "outputs": [
        {
          "internalType": "bool",
          "name": "",
          "type": "bool"
        }
      ],
      "stateMutability": "view",
      "type": "function"
    },
    {
      "inputs": [
        {
          "internalType": "uint256",
          "name": "_qty",
          "type": "uint256"
        }
      ],
      "name": "mint",
      "outputs": [],
      "stateMutability": "nonpayable",
      "type": "function"
    },
    {
      "inputs": [],
      "name": "mintSettings",
      "outputs": [
        {
          "internalType": "uint256",
          "name": "round",
          "type": "uint256"
        },
        {
          "internalType": "uint256",
          "name": "supplyPerRound",
          "type": "uint256"
        },
        {
          "internalType": "uint256",
          "name": "cooldown",
          "type": "uint256"
        },
        {
          "internalType": "uint256",
          "name": "lastMintedAt",
          "type": "uint256"
        },
        {
          "internalType": "uint256",
          "name": "price",
          "type": "uint256"
        }
      ],
      "stateMutability": "view",
      "type": "function"
    },
    {
      "inputs": [],
      "name": "monster",
      "outputs": [
        {
          "internalType": "uint256",
          "name": "transferCooldown",
          "type": "uint256"
        }
      ],
      "stateMutability": "view",
      "type": "function"
    },
    {
      "inputs": [],
      "name": "name",
      "outputs": [
        {
          "internalType": "string",
          "name": "",
          "type": "string"
        }
      ],
      "stateMutability": "view",
      "type": "function"
    },
    {
      "inputs": [],
      "name": "owner",
      "outputs": [
        {
          "internalType": "address",
          "name": "",
          "type": "address"
        }
      ],
      "stateMutability": "view",
      "type": "function"
    },
    {
      "inputs": [
        {
          "internalType": "uint256",
          "name": "tokenId",
          "type": "uint256"
        }
      ],
      "name": "ownerOf",
      "outputs": [
        {
          "internalType": "address",
          "name": "",
          "type": "address"
        }
      ],
      "stateMutability": "view",
      "type": "function"
    },
    {
      "inputs": [],
      "name": "registry",
      "outputs": [
        {
          "internalType": "contract Registry",
          "name": "",
          "type": "address"
        }
      ],
      "stateMutability": "view",
      "type": "function"
    },
    {
      "inputs": [],
      "name": "renounceOwnership",
      "outputs": [],
      "stateMutability": "nonpayable",
      "type": "function"
    },
    {
      "inputs": [
        {
          "internalType": "address",
          "name": "from",
          "type": "address"
        },
        {
          "internalType": "address",
          "name": "to",
          "type": "address"
        },
        {
          "internalType": "uint256",
          "name": "tokenId",
          "type": "uint256"
        }
      ],
      "name": "safeTransferFrom",
      "outputs": [],
      "stateMutability": "nonpayable",
      "type": "function"
    },
    {
      "inputs": [
        {
          "internalType": "address",
          "name": "from",
          "type": "address"
        },
        {
          "internalType": "address",
          "name": "to",
          "type": "address"
        },
        {
          "internalType": "uint256",
          "name": "tokenId",
          "type": "uint256"
        },
        {
          "internalType": "bytes",
          "name": "data",
          "type": "bytes"
        }
      ],
      "name": "safeTransferFrom",
      "outputs": [],
      "stateMutability": "nonpayable",
      "type": "function"
    },
    {
      "inputs": [
        {
          "internalType": "address",
          "name": "operator",
          "type": "address"
        },
        {
          "internalType": "bool",
          "name": "approved",
          "type": "bool"
        }
      ],
      "name": "setApprovalForAll",
      "outputs": [],
      "stateMutability": "nonpayable",
      "type": "function"
    },
    {
      "inputs": [
        {
          "components": [
            {
              "internalType": "uint256",
              "name": "round",
              "type": "uint256"
            },
            {
              "internalType": "uint256",
              "name": "supplyPerRound",
              "type": "uint256"
            },
            {
              "internalType": "uint256",
              "name": "cooldown",
              "type": "uint256"
            },
            {
              "internalType": "uint256",
              "name": "lastMintedAt",
              "type": "uint256"
            },
            {
              "internalType": "uint256",
              "name": "price",
              "type": "uint256"
            }
          ],
          "internalType": "struct IMonsters.MintSettings",
          "name": "_mintSettings",
          "type": "tuple"
        }
      ],
      "name": "setMintSettings",
      "outputs": [],
      "stateMutability": "nonpayable",
      "type": "function"
    },
    {
      "inputs": [
        {
          "internalType": "contract Registry",
          "name": "_registry",
          "type": "address"
        }
      ],
      "name": "setRegistry",
      "outputs": [],
      "stateMutability": "nonpayable",
      "type": "function"
    },
    {
      "inputs": [
        {
          "internalType": "bytes4",
          "name": "interfaceId",
          "type": "bytes4"
        }
      ],
      "name": "supportsInterface",
      "outputs": [
        {
          "internalType": "bool",
          "name": "",
          "type": "bool"
        }
      ],
      "stateMutability": "view",
      "type": "function"
    },
    {
      "inputs": [],
      "name": "symbol",
      "outputs": [
        {
          "internalType": "string",
          "name": "",
          "type": "string"
        }
      ],
      "stateMutability": "view",
      "type": "function"
    },
    {
      "inputs": [
        {
          "internalType": "uint256",
          "name": "index",
          "type": "uint256"
        }
      ],
      "name": "tokenByIndex",
      "outputs": [
        {
          "internalType": "uint256",
          "name": "",
          "type": "uint256"
        }
      ],
      "stateMutability": "view",
      "type": "function"
    },
    {
      "inputs": [
        {
          "internalType": "address",
          "name": "owner",
          "type": "address"
        },
        {
          "internalType": "uint256",
          "name": "index",
          "type": "uint256"
        }
      ],
      "name": "tokenOfOwnerByIndex",
      "outputs": [
        {
          "internalType": "uint256",
          "name": "",
          "type": "uint256"
        }
      ],
      "stateMutability": "view",
      "type": "function"
    },
    {
      "inputs": [
        {
          "internalType": "uint256",
          "name": "tokenId",
          "type": "uint256"
        }
      ],
      "name": "tokenURI",
      "outputs": [
        {
          "internalType": "string",
          "name": "",
          "type": "string"
        }
      ],
      "stateMutability": "view",
      "type": "function"
    },
    {
      "inputs": [],
      "name": "totalSupply",
      "outputs": [
        {
          "internalType": "uint256",
          "name": "",
          "type": "uint256"
        }
      ],
      "stateMutability": "view",
      "type": "function"
    },
    {
      "inputs": [
        {
          "internalType": "address",
          "name": "from",
          "type": "address"
        },
        {
          "internalType": "address",
          "name": "to",
          "type": "address"
        },
        {
          "internalType": "uint256",
          "name": "tokenId",
          "type": "uint256"
        }
      ],
      "name": "transferFrom",
      "outputs": [],
      "stateMutability": "nonpayable",
      "type": "function"
    },
    {
      "inputs": [
        {
          "internalType": "address",
          "name": "newOwner",
          "type": "address"
        }
      ],
      "name": "transferOwnership",
      "outputs": [],
      "stateMutability": "nonpayable",
      "type": "function"
    }
  ],
  "bytecode": "0x608060405234801561001057600080fd5b50613ca9806100206000396000f3fe608060405234801561001057600080fd5b50600436106101c45760003560e01c8063715018a6116100f9578063a91ee0dc11610097578063c87b56dd11610071578063c87b56dd146104c9578063e985e9c5146104f9578063ed8d458114610529578063f2fde38b1461054b576101c4565b8063a91ee0dc14610475578063b80f55c914610491578063b88d4fde146104ad576101c4565b80638da5cb5b116100d35780638da5cb5b1461040157806395d89b411461041f578063a0712d681461043d578063a22cb46514610459576101c4565b8063715018a6146103cf5780637b103999146103d95780638129fc1c146103f7576101c4565b80632dd95b681161016657806342966c681161014057806342966c68146103235780634f6ccce71461033f5780636352211e1461036f57806370a082311461039f576101c4565b80632dd95b68146102b95780632f745c59146102d757806342842e0e14610307576101c4565b8063095ea7b3116101a2578063095ea7b31461024757806312938e311461026357806318160ddd1461027f57806323b872dd1461029d576101c4565b806301ffc9a7146101c957806306fdde03146101f9578063081812fc14610217575b600080fd5b6101e360048036038101906101de9190612a7a565b610567565b6040516101f09190612ac2565b60405180910390f35b610201610579565b60405161020e9190612b6d565b60405180910390f35b610231600480360381019061022c9190612bc5565b61061a565b60405161023e9190612c33565b60405180910390f35b610261600480360381019061025c9190612c7a565b610636565b005b61027d60048036038101906102789190612dc6565b61064c565b005b61028761068e565b6040516102949190612e02565b60405180910390f35b6102b760048036038101906102b29190612e1d565b6106a9565b005b6102c16108fc565b6040516102ce9190612e02565b60405180910390f35b6102f160048036038101906102ec9190612c7a565b610908565b6040516102fe9190612e02565b60405180910390f35b610321600480360381019061031c9190612e1d565b6109bf565b005b61033d60048036038101906103389190612bc5565b6109df565b005b61035960048036038101906103549190612bc5565b6109f6565b6040516103669190612e02565b60405180910390f35b61038960048036038101906103849190612bc5565b610a7a565b6040516103969190612c33565b60405180910390f35b6103b960048036038101906103b49190612e70565b610a8c565b6040516103c69190612e02565b60405180910390f35b6103d7610b55565b005b6103e1610b69565b6040516103ee9190612efc565b60405180910390f35b6103ff610b8f565b005b610409610e1f565b6040516104169190612c33565b60405180910390f35b610427610e57565b6040516104349190612b6d565b60405180910390f35b61045760048036038101906104529190612bc5565b610ef8565b005b610473600480360381019061046e9190612f43565b611194565b005b61048f600480360381019061048a9190612fc1565b6111aa565b005b6104ab60048036038101906104a691906130bb565b6111f6565b005b6104c760048036038101906104c291906131b9565b611260565b005b6104e360048036038101906104de9190612bc5565b61127d565b6040516104f09190612b6d565b60405180910390f35b610513600480360381019061050e919061323c565b6113ae565b6040516105209190612ac2565b60405180910390f35b610531611450565b60405161054295949392919061327c565b60405180910390f35b61056560048036038101906105609190612e70565b611474565b005b6000610572826114fa565b9050919050565b60606000610585611574565b9050806000018054610596906132fe565b80601f01602080910402602001604051908101604052809291908181526020018280546105c2906132fe565b801561060f5780601f106105e45761010080835404028352916020019161060f565b820191906000526020600020905b8154815290600101906020018083116105f257829003601f168201915b505050505091505090565b60006106258261159c565b5061062f82611624565b9050919050565b610648828261064361166f565b611677565b5050565b610654611689565b8060008082015181600001556020820151816001015560408201518160020155606082015181600301556080820151816004015590505050565b600080610699611710565b9050806002018054905091505090565b6000600660009054906101000a900473ffffffffffffffffffffffffffffffffffffffff1673ffffffffffffffffffffffffffffffffffffffff1663bf40fac16040518163ffffffff1660e01b81526004016107049061337b565b602060405180830381865afa158015610721573d6000803e3d6000fd5b505050506040513d601f19601f8201168201806040525081019061074591906133b0565b9050600073ffffffffffffffffffffffffffffffffffffffff168473ffffffffffffffffffffffffffffffffffffffff16146107f9578073ffffffffffffffffffffffffffffffffffffffff1663a50ed19b83600560000154426107a9919061340c565b6040518363ffffffff1660e01b81526004016107c6929190613440565b600060405180830381600087803b1580156107e057600080fd5b505af11580156107f4573d6000803e3d6000fd5b505050505b600073ffffffffffffffffffffffffffffffffffffffff168373ffffffffffffffffffffffffffffffffffffffff160361086b5760006040517f64a0ae920000000000000000000000000000000000000000000000000000000081526004016108629190612c33565b60405180910390fd5b600061087f848461087a61166f565b611738565b90508473ffffffffffffffffffffffffffffffffffffffff168173ffffffffffffffffffffffffffffffffffffffff16146108f5578483826040517f64283d7b0000000000000000000000000000000000000000000000000000000081526004016108ec93929190613469565b60405180910390fd5b5050505050565b60058060000154905081565b600080610913611710565b905061091e84610a8c565b83106109635783836040517fa57d13dc00000000000000000000000000000000000000000000000000000000815260040161095a9291906134a0565b60405180910390fd5b8060000160008573ffffffffffffffffffffffffffffffffffffffff1673ffffffffffffffffffffffffffffffffffffffff16815260200190815260200160002060008481526020019081526020016000205491505092915050565b6109da83838360405180602001604052806000815250611260565b505050565b6109f26000826109ed61166f565b611738565b5050565b600080610a01611710565b9050610a0b61068e565b8310610a51576000836040517fa57d13dc000000000000000000000000000000000000000000000000000000008152600401610a489291906134a0565b60405180910390fd5b806002018381548110610a6757610a666134c9565b5b9060005260206000200154915050919050565b6000610a858261159c565b9050919050565b600080610a97611574565b9050600073ffffffffffffffffffffffffffffffffffffffff168373ffffffffffffffffffffffffffffffffffffffff1603610b0b5760006040517f89c62b64000000000000000000000000000000000000000000000000000000008152600401610b029190612c33565b60405180910390fd5b8060030160008473ffffffffffffffffffffffffffffffffffffffff1673ffffffffffffffffffffffffffffffffffffffff16815260200190815260200160002054915050919050565b610b5d611689565b610b67600061174e565b565b600660009054906101000a900473ffffffffffffffffffffffffffffffffffffffff1681565b6000610b99611825565b905060008160000160089054906101000a900460ff1615905060008260000160009054906101000a900467ffffffffffffffff1690506000808267ffffffffffffffff16148015610be75750825b9050600060018367ffffffffffffffff16148015610c1c575060003073ffffffffffffffffffffffffffffffffffffffff163b145b905081158015610c2a575080155b15610c61576040517ff92ee8a900000000000000000000000000000000000000000000000000000000815260040160405180910390fd5b60018560000160006101000a81548167ffffffffffffffff021916908367ffffffffffffffff1602179055508315610cb15760018560000160086101000a81548160ff0219169083151502179055505b610d256040518060400160405280600881526020017f4d6f6e73746572730000000000000000000000000000000000000000000000008152506040518060400160405280600381526020017f4d5354000000000000000000000000000000000000000000000000000000000081525061184d565b610d2e33611863565b6040518060a0016040528060008152602001612710815260200162093a808152602001600081526020016801158e460913d000008152506000808201518160000155602082015181600101556040820151816002015560608201518160030155608082015181600401559050506040518060200160405280620151808152506005600082015181600001559050508315610e185760008560000160086101000a81548160ff0219169083151502179055507fc7f505b2f371ae2175ee4913f4499e1f2633a7b5936321eed1cdaeb6115181d26001604051610e0f9190613547565b60405180910390a15b5050505050565b600080610e2a611877565b90508060000160009054906101000a900473ffffffffffffffffffffffffffffffffffffffff1691505090565b60606000610e63611574565b9050806001018054610e74906132fe565b80601f0160208091040260200160405190810160405280929190818152602001828054610ea0906132fe565b8015610eed5780601f10610ec257610100808354040283529160200191610eed565b820191906000526020600020905b815481529060010190602001808311610ed057829003601f168201915b505050505091505090565b8060006001015460016000800154610f10919061340c565b610f1a9190613562565b81610f2361068e565b610f2d919061340c565b1115610f6e576040517f08c379a0000000000000000000000000000000000000000000000000000000008152600401610f6590613616565b60405180910390fd5b600060020154600060030154610f84919061340c565b421015610fc6576040517f08c379a0000000000000000000000000000000000000000000000000000000008152600401610fbd90613682565b60405180910390fd5b6000600660009054906101000a900473ffffffffffffffffffffffffffffffffffffffff1673ffffffffffffffffffffffffffffffffffffffff1663bf40fac16040518163ffffffff1660e01b8152600401611021906136ee565b602060405180830381865afa15801561103e573d6000803e3d6000fd5b505050506040513d601f19601f8201168201806040525081019061106291906133b0565b90508073ffffffffffffffffffffffffffffffffffffffff166323b872dd3330866000600401546110939190613562565b6040518463ffffffff1660e01b81526004016110b19392919061370e565b6020604051808303816000875af11580156110d0573d6000803e3d6000fd5b505050506040513d601f19601f820116820180604052508101906110f4919061375a565b5060005b838110156111305761111d33600161110e61068e565b611118919061340c565b61189f565b808061112890613787565b9150506110f8565b505060006001015460016000800154611149919061340c565b6111539190613562565b8161115c61068e565b611166919061340c565b036111905760008001600081548092919061118090613787565b9190505550426000600301819055505b5050565b6111a661119f61166f565b8383611998565b5050565b6111b2611689565b80600660006101000a81548173ffffffffffffffffffffffffffffffffffffffff021916908373ffffffffffffffffffffffffffffffffffffffff16021790555050565b60005b815181101561125c57611225828281518110611218576112176134c9565b5b602002602001015161159c565b5061124982828151811061123c5761123b6134c9565b5b6020026020010151611b16565b808061125490613787565b9150506111f9565b5050565b61126b8484846106a9565b61127784848484611b9c565b50505050565b60606112888261159c565b506000600660009054906101000a900473ffffffffffffffffffffffffffffffffffffffff1673ffffffffffffffffffffffffffffffffffffffff1663bf40fac16040518163ffffffff1660e01b81526004016112e49061337b565b602060405180830381865afa158015611301573d6000803e3d6000fd5b505050506040513d601f19601f8201168201806040525081019061132591906133b0565b90508073ffffffffffffffffffffffffffffffffffffffff1663a574cea4846040518263ffffffff1660e01b81526004016113609190612e02565b600060405180830381865afa15801561137d573d6000803e3d6000fd5b505050506040513d6000823e3d601f19601f820116820180604052508101906113a69190613870565b915050919050565b6000806113b9611574565b90508060050160008573ffffffffffffffffffffffffffffffffffffffff1673ffffffffffffffffffffffffffffffffffffffff16815260200190815260200160002060008473ffffffffffffffffffffffffffffffffffffffff1673ffffffffffffffffffffffffffffffffffffffff16815260200190815260200160002060009054906101000a900460ff1691505092915050565b60008060000154908060010154908060020154908060030154908060040154905085565b61147c611689565b600073ffffffffffffffffffffffffffffffffffffffff168173ffffffffffffffffffffffffffffffffffffffff16036114ee5760006040517f1e4fbdf70000000000000000000000000000000000000000000000000000000081526004016114e59190612c33565b60405180910390fd5b6114f78161174e565b50565b60007f780e9d63000000000000000000000000000000000000000000000000000000007bffffffffffffffffffffffffffffffffffffffffffffffffffffffff1916827bffffffffffffffffffffffffffffffffffffffffffffffffffffffff1916148061156d575061156c82611d53565b5b9050919050565b60007f80bb2b638cc20bc4d0a60d66940f3ab4a00c1d7b313497ca82fb0b4ab0079300905090565b6000806115a883611e35565b9050600073ffffffffffffffffffffffffffffffffffffffff168173ffffffffffffffffffffffffffffffffffffffff160361161b57826040517f7e2732890000000000000000000000000000000000000000000000000000000081526004016116129190612e02565b60405180910390fd5b80915050919050565b60008061162f611574565b905080600401600084815260200190815260200160002060009054906101000a900473ffffffffffffffffffffffffffffffffffffffff16915050919050565b600033905090565b6116848383836001611e80565b505050565b61169161166f565b73ffffffffffffffffffffffffffffffffffffffff166116af610e1f565b73ffffffffffffffffffffffffffffffffffffffff161461170e576116d261166f565b6040517f118cdaa70000000000000000000000000000000000000000000000000000000081526004016117059190612c33565b60405180910390fd5b565b60007f645e039705490088daad89bae25049a34f4a9072d398537b1ab2425f24cbed00905090565b6000611745848484612054565b90509392505050565b6000611758611877565b905060008160000160009054906101000a900473ffffffffffffffffffffffffffffffffffffffff169050828260000160006101000a81548173ffffffffffffffffffffffffffffffffffffffff021916908373ffffffffffffffffffffffffffffffffffffffff1602179055508273ffffffffffffffffffffffffffffffffffffffff168173ffffffffffffffffffffffffffffffffffffffff167f8be0079c531659141344cd1fd0a4f28419497f9722a3daafe3b4186f6b6457e060405160405180910390a3505050565b60007ff0c57e16840df040f15088dc2f81fe391c3923bec73e23a9662efc9c229c6a00905090565b611855612171565b61185f82826121b1565b5050565b61186b612171565b611874816121ee565b50565b60007f9016d09d72d40fdae2fd8ceac6b6234c7706214fd39c1cd1e609a0528c199300905090565b600073ffffffffffffffffffffffffffffffffffffffff168273ffffffffffffffffffffffffffffffffffffffff16036119115760006040517f64a0ae920000000000000000000000000000000000000000000000000000000081526004016119089190612c33565b60405180910390fd5b600061191f83836000611738565b9050600073ffffffffffffffffffffffffffffffffffffffff168173ffffffffffffffffffffffffffffffffffffffff16146119935760006040517f73c6ac6e00000000000000000000000000000000000000000000000000000000815260040161198a9190612c33565b60405180910390fd5b505050565b60006119a2611574565b9050600073ffffffffffffffffffffffffffffffffffffffff168373ffffffffffffffffffffffffffffffffffffffff1603611a1557826040517f5b08ba18000000000000000000000000000000000000000000000000000000008152600401611a0c9190612c33565b60405180910390fd5b818160050160008673ffffffffffffffffffffffffffffffffffffffff1673ffffffffffffffffffffffffffffffffffffffff16815260200190815260200160002060008573ffffffffffffffffffffffffffffffffffffffff1673ffffffffffffffffffffffffffffffffffffffff16815260200190815260200160002060006101000a81548160ff0219169083151502179055508273ffffffffffffffffffffffffffffffffffffffff168473ffffffffffffffffffffffffffffffffffffffff167f17307eab39ab6107e8899845ad3d59bd9653f200f220920489ca2b5937696c3184604051611b089190612ac2565b60405180910390a350505050565b6000611b256000836000611738565b9050600073ffffffffffffffffffffffffffffffffffffffff168173ffffffffffffffffffffffffffffffffffffffff1603611b9857816040517f7e273289000000000000000000000000000000000000000000000000000000008152600401611b8f9190612e02565b60405180910390fd5b5050565b60008373ffffffffffffffffffffffffffffffffffffffff163b1115611d4d578273ffffffffffffffffffffffffffffffffffffffff1663150b7a02611be061166f565b8685856040518563ffffffff1660e01b8152600401611c02949392919061390e565b6020604051808303816000875af1925050508015611c3e57506040513d601f19601f82011682018060405250810190611c3b919061396f565b60015b611cc2573d8060008114611c6e576040519150601f19603f3d011682016040523d82523d6000602084013e611c73565b606091505b506000815103611cba57836040517f64a0ae92000000000000000000000000000000000000000000000000000000008152600401611cb19190612c33565b60405180910390fd5b805181602001fd5b63150b7a0260e01b7bffffffffffffffffffffffffffffffffffffffffffffffffffffffff1916817bffffffffffffffffffffffffffffffffffffffffffffffffffffffff191614611d4b57836040517f64a0ae92000000000000000000000000000000000000000000000000000000008152600401611d429190612c33565b60405180910390fd5b505b50505050565b60007f80ac58cd000000000000000000000000000000000000000000000000000000007bffffffffffffffffffffffffffffffffffffffffffffffffffffffff1916827bffffffffffffffffffffffffffffffffffffffffffffffffffffffff19161480611e1e57507f5b5e139f000000000000000000000000000000000000000000000000000000007bffffffffffffffffffffffffffffffffffffffffffffffffffffffff1916827bffffffffffffffffffffffffffffffffffffffffffffffffffffffff1916145b80611e2e5750611e2d82612274565b5b9050919050565b600080611e40611574565b905080600201600084815260200190815260200160002060009054906101000a900473ffffffffffffffffffffffffffffffffffffffff16915050919050565b6000611e8a611574565b90508180611ec55750600073ffffffffffffffffffffffffffffffffffffffff168373ffffffffffffffffffffffffffffffffffffffff1614155b15611ff9576000611ed58561159c565b9050600073ffffffffffffffffffffffffffffffffffffffff168473ffffffffffffffffffffffffffffffffffffffff1614158015611f4057508373ffffffffffffffffffffffffffffffffffffffff168173ffffffffffffffffffffffffffffffffffffffff1614155b8015611f535750611f5181856113ae565b155b15611f9557836040517fa9fbf51f000000000000000000000000000000000000000000000000000000008152600401611f8c9190612c33565b60405180910390fd5b8215611ff757848673ffffffffffffffffffffffffffffffffffffffff168273ffffffffffffffffffffffffffffffffffffffff167f8c5be1e5ebec7d5bd14f71427d1e84f3dd0314c0f7b2291e5b200ac8c7c3b92560405160405180910390a45b505b8481600401600086815260200190815260200160002060006101000a81548173ffffffffffffffffffffffffffffffffffffffff021916908373ffffffffffffffffffffffffffffffffffffffff1602179055505050505050565b6000806120628585856122de565b9050600073ffffffffffffffffffffffffffffffffffffffff168173ffffffffffffffffffffffffffffffffffffffff16036120a6576120a18461250b565b6120e5565b8473ffffffffffffffffffffffffffffffffffffffff168173ffffffffffffffffffffffffffffffffffffffff16146120e4576120e38185612567565b5b5b600073ffffffffffffffffffffffffffffffffffffffff168573ffffffffffffffffffffffffffffffffffffffff160361212757612122846126e1565b612166565b8473ffffffffffffffffffffffffffffffffffffffff168173ffffffffffffffffffffffffffffffffffffffff16146121655761216485856127cd565b5b5b809150509392505050565b612179612869565b6121af576040517fd7e6bcf800000000000000000000000000000000000000000000000000000000815260040160405180910390fd5b565b6121b9612171565b60006121c3611574565b9050828160000190816121d69190613b3e565b50818160010190816121e89190613b3e565b50505050565b6121f6612171565b600073ffffffffffffffffffffffffffffffffffffffff168173ffffffffffffffffffffffffffffffffffffffff16036122685760006040517f1e4fbdf700000000000000000000000000000000000000000000000000000000815260040161225f9190612c33565b60405180910390fd5b6122718161174e565b50565b60007f01ffc9a7000000000000000000000000000000000000000000000000000000007bffffffffffffffffffffffffffffffffffffffffffffffffffffffff1916827bffffffffffffffffffffffffffffffffffffffffffffffffffffffff1916149050919050565b6000806122e9611574565b905060006122f685611e35565b9050600073ffffffffffffffffffffffffffffffffffffffff168473ffffffffffffffffffffffffffffffffffffffff161461233857612337818587612889565b5b600073ffffffffffffffffffffffffffffffffffffffff168173ffffffffffffffffffffffffffffffffffffffff16146123cb5761237a600086600080611e80565b60018260030160008373ffffffffffffffffffffffffffffffffffffffff1673ffffffffffffffffffffffffffffffffffffffff168152602001908152602001600020600082825403925050819055505b600073ffffffffffffffffffffffffffffffffffffffff168673ffffffffffffffffffffffffffffffffffffffff16146124505760018260030160008873ffffffffffffffffffffffffffffffffffffffff1673ffffffffffffffffffffffffffffffffffffffff168152602001908152602001600020600082825401925050819055505b8582600201600087815260200190815260200160002060006101000a81548173ffffffffffffffffffffffffffffffffffffffff021916908373ffffffffffffffffffffffffffffffffffffffff160217905550848673ffffffffffffffffffffffffffffffffffffffff168273ffffffffffffffffffffffffffffffffffffffff167fddf252ad1be2c89b69c2b068fc378daa952ba7f163c4a11628f55a4df523b3ef60405160405180910390a480925050509392505050565b6000612515611710565b9050806002018054905081600301600084815260200190815260200160002081905550806002018290806001815401808255809150506001900390600052602060002001600090919091909150555050565b6000612571611710565b9050600061257e84610a8c565b9050600082600101600085815260200190815260200160002054905081811461266b5760008360000160008773ffffffffffffffffffffffffffffffffffffffff1673ffffffffffffffffffffffffffffffffffffffff1681526020019081526020016000206000848152602001908152602001600020549050808460000160008873ffffffffffffffffffffffffffffffffffffffff1673ffffffffffffffffffffffffffffffffffffffff1681526020019081526020016000206000848152602001908152602001600020819055508184600101600083815260200190815260200160002081905550505b826001016000858152602001908152602001600020600090558260000160008673ffffffffffffffffffffffffffffffffffffffff1673ffffffffffffffffffffffffffffffffffffffff1681526020019081526020016000206000838152602001908152602001600020600090555050505050565b60006126eb611710565b90506000600182600201805490506127039190613c10565b905060008260030160008581526020019081526020016000205490506000836002018381548110612737576127366134c9565b5b906000526020600020015490508084600201838154811061275b5761275a6134c9565b5b9060005260206000200181905550818460030160008381526020019081526020016000208190555083600301600086815260200190815260200160002060009055836002018054806127b0576127af613c44565b5b600190038181906000526020600020016000905590555050505050565b60006127d7611710565b9050600060016127e685610a8c565b6127f09190613c10565b9050828260000160008673ffffffffffffffffffffffffffffffffffffffff1673ffffffffffffffffffffffffffffffffffffffff168152602001908152602001600020600083815260200190815260200160002081905550808260010160008581526020019081526020016000208190555050505050565b6000612873611825565b60000160089054906101000a900460ff16905090565b61289483838361294d565b61294857600073ffffffffffffffffffffffffffffffffffffffff168373ffffffffffffffffffffffffffffffffffffffff160361290957806040517f7e2732890000000000000000000000000000000000000000000000000000000081526004016129009190612e02565b60405180910390fd5b81816040517f177e802f00000000000000000000000000000000000000000000000000000000815260040161293f9291906134a0565b60405180910390fd5b505050565b60008073ffffffffffffffffffffffffffffffffffffffff168373ffffffffffffffffffffffffffffffffffffffff1614158015612a0557508273ffffffffffffffffffffffffffffffffffffffff168473ffffffffffffffffffffffffffffffffffffffff1614806129c657506129c584846113ae565b5b80612a0457508273ffffffffffffffffffffffffffffffffffffffff166129ec83611624565b73ffffffffffffffffffffffffffffffffffffffff16145b5b90509392505050565b6000604051905090565b600080fd5b600080fd5b60007fffffffff0000000000000000000000000000000000000000000000000000000082169050919050565b612a5781612a22565b8114612a6257600080fd5b50565b600081359050612a7481612a4e565b92915050565b600060208284031215612a9057612a8f612a18565b5b6000612a9e84828501612a65565b91505092915050565b60008115159050919050565b612abc81612aa7565b82525050565b6000602082019050612ad76000830184612ab3565b92915050565b600081519050919050565b600082825260208201905092915050565b60005b83811015612b17578082015181840152602081019050612afc565b60008484015250505050565b6000601f19601f8301169050919050565b6000612b3f82612add565b612b498185612ae8565b9350612b59818560208601612af9565b612b6281612b23565b840191505092915050565b60006020820190508181036000830152612b878184612b34565b905092915050565b6000819050919050565b612ba281612b8f565b8114612bad57600080fd5b50565b600081359050612bbf81612b99565b92915050565b600060208284031215612bdb57612bda612a18565b5b6000612be984828501612bb0565b91505092915050565b600073ffffffffffffffffffffffffffffffffffffffff82169050919050565b6000612c1d82612bf2565b9050919050565b612c2d81612c12565b82525050565b6000602082019050612c486000830184612c24565b92915050565b612c5781612c12565b8114612c6257600080fd5b50565b600081359050612c7481612c4e565b92915050565b60008060408385031215612c9157612c90612a18565b5b6000612c9f85828601612c65565b9250506020612cb085828601612bb0565b9150509250929050565b600080fd5b7f4e487b7100000000000000000000000000000000000000000000000000000000600052604160045260246000fd5b612cf782612b23565b810181811067ffffffffffffffff82111715612d1657612d15612cbf565b5b80604052505050565b6000612d29612a0e565b9050612d358282612cee565b919050565b600060a08284031215612d5057612d4f612cba565b5b612d5a60a0612d1f565b90506000612d6a84828501612bb0565b6000830152506020612d7e84828501612bb0565b6020830152506040612d9284828501612bb0565b6040830152506060612da684828501612bb0565b6060830152506080612dba84828501612bb0565b60808301525092915050565b600060a08284031215612ddc57612ddb612a18565b5b6000612dea84828501612d3a565b91505092915050565b612dfc81612b8f565b82525050565b6000602082019050612e176000830184612df3565b92915050565b600080600060608486031215612e3657612e35612a18565b5b6000612e4486828701612c65565b9350506020612e5586828701612c65565b9250506040612e6686828701612bb0565b9150509250925092565b600060208284031215612e8657612e85612a18565b5b6000612e9484828501612c65565b91505092915050565b6000819050919050565b6000612ec2612ebd612eb884612bf2565b612e9d565b612bf2565b9050919050565b6000612ed482612ea7565b9050919050565b6000612ee682612ec9565b9050919050565b612ef681612edb565b82525050565b6000602082019050612f116000830184612eed565b92915050565b612f2081612aa7565b8114612f2b57600080fd5b50565b600081359050612f3d81612f17565b92915050565b60008060408385031215612f5a57612f59612a18565b5b6000612f6885828601612c65565b9250506020612f7985828601612f2e565b9150509250929050565b6000612f8e82612c12565b9050919050565b612f9e81612f83565b8114612fa957600080fd5b50565b600081359050612fbb81612f95565b92915050565b600060208284031215612fd757612fd6612a18565b5b6000612fe584828501612fac565b91505092915050565b600080fd5b600067ffffffffffffffff82111561300e5761300d612cbf565b5b602082029050602081019050919050565b600080fd5b600061303761303284612ff3565b612d1f565b9050808382526020820190506020840283018581111561305a5761305961301f565b5b835b81811015613083578061306f8882612bb0565b84526020840193505060208101905061305c565b5050509392505050565b600082601f8301126130a2576130a1612fee565b5b81356130b2848260208601613024565b91505092915050565b6000602082840312156130d1576130d0612a18565b5b600082013567ffffffffffffffff8111156130ef576130ee612a1d565b5b6130fb8482850161308d565b91505092915050565b600080fd5b600067ffffffffffffffff82111561312457613123612cbf565b5b61312d82612b23565b9050602081019050919050565b82818337600083830152505050565b600061315c61315784613109565b612d1f565b90508281526020810184848401111561317857613177613104565b5b61318384828561313a565b509392505050565b600082601f8301126131a05761319f612fee565b5b81356131b0848260208601613149565b91505092915050565b600080600080608085870312156131d3576131d2612a18565b5b60006131e187828801612c65565b94505060206131f287828801612c65565b935050604061320387828801612bb0565b925050606085013567ffffffffffffffff81111561322457613223612a1d565b5b6132308782880161318b565b91505092959194509250565b6000806040838503121561325357613252612a18565b5b600061326185828601612c65565b925050602061327285828601612c65565b9150509250929050565b600060a0820190506132916000830188612df3565b61329e6020830187612df3565b6132ab6040830186612df3565b6132b86060830185612df3565b6132c56080830184612df3565b9695505050505050565b7f4e487b7100000000000000000000000000000000000000000000000000000000600052602260045260246000fd5b6000600282049050600182168061331657607f821691505b602082108103613329576133286132cf565b5b50919050565b7f4d6f6e73746572734d6574610000000000000000000000000000000000000000600082015250565b6000613365600c83612ae8565b91506133708261332f565b602082019050919050565b6000602082019050818103600083015261339481613358565b9050919050565b6000815190506133aa81612c4e565b92915050565b6000602082840312156133c6576133c5612a18565b5b60006133d48482850161339b565b91505092915050565b7f4e487b7100000000000000000000000000000000000000000000000000000000600052601160045260246000fd5b600061341782612b8f565b915061342283612b8f565b925082820190508082111561343a576134396133dd565b5b92915050565b60006040820190506134556000830185612df3565b6134626020830184612df3565b9392505050565b600060608201905061347e6000830186612c24565b61348b6020830185612df3565b6134986040830184612c24565b949350505050565b60006040820190506134b56000830185612c24565b6134c26020830184612df3565b9392505050565b7f4e487b7100000000000000000000000000000000000000000000000000000000600052603260045260246000fd5b6000819050919050565b600067ffffffffffffffff82169050919050565b600061353161352c613527846134f8565b612e9d565b613502565b9050919050565b61354181613516565b82525050565b600060208201905061355c6000830184613538565b92915050565b600061356d82612b8f565b915061357883612b8f565b925082820261358681612b8f565b9150828204841483151761359d5761359c6133dd565b5b5092915050565b7f4d6f6e73746572733a20526f756e6420737570706c79206e6f7420656e6f756760008201527f6800000000000000000000000000000000000000000000000000000000000000602082015250565b6000613600602183612ae8565b915061360b826135a4565b604082019050919050565b6000602082019050818103600083015261362f816135f3565b9050919050565b7f4d6f6e73746572733a20436f6f6c646f776e206e6f7420726561636865640000600082015250565b600061366c601e83612ae8565b915061367782613636565b602082019050919050565b6000602082019050818103600083015261369b8161365f565b9050919050565b7f5553445400000000000000000000000000000000000000000000000000000000600082015250565b60006136d8600483612ae8565b91506136e3826136a2565b602082019050919050565b60006020820190508181036000830152613707816136cb565b9050919050565b60006060820190506137236000830186612c24565b6137306020830185612c24565b61373d6040830184612df3565b949350505050565b60008151905061375481612f17565b92915050565b6000602082840312156137705761376f612a18565b5b600061377e84828501613745565b91505092915050565b600061379282612b8f565b91507fffffffffffffffffffffffffffffffffffffffffffffffffffffffffffffffff82036137c4576137c36133dd565b5b600182019050919050565b600067ffffffffffffffff8211156137ea576137e9612cbf565b5b6137f382612b23565b9050602081019050919050565b600061381361380e846137cf565b612d1f565b90508281526020810184848401111561382f5761382e613104565b5b61383a848285612af9565b509392505050565b600082601f83011261385757613856612fee565b5b8151613867848260208601613800565b91505092915050565b60006020828403121561388657613885612a18565b5b600082015167ffffffffffffffff8111156138a4576138a3612a1d565b5b6138b084828501613842565b91505092915050565b600081519050919050565b600082825260208201905092915050565b60006138e0826138b9565b6138ea81856138c4565b93506138fa818560208601612af9565b61390381612b23565b840191505092915050565b60006080820190506139236000830187612c24565b6139306020830186612c24565b61393d6040830185612df3565b818103606083015261394f81846138d5565b905095945050505050565b60008151905061396981612a4e565b92915050565b60006020828403121561398557613984612a18565b5b60006139938482850161395a565b91505092915050565b60008190508160005260206000209050919050565b60006020601f8301049050919050565b600082821b905092915050565b6000600883026139fe7fffffffffffffffffffffffffffffffffffffffffffffffffffffffffffffffff826139c1565b613a0886836139c1565b95508019841693508086168417925050509392505050565b6000613a3b613a36613a3184612b8f565b612e9d565b612b8f565b9050919050565b6000819050919050565b613a5583613a20565b613a69613a6182613a42565b8484546139ce565b825550505050565b600090565b613a7e613a71565b613a89818484613a4c565b505050565b5b81811015613aad57613aa2600082613a76565b600181019050613a8f565b5050565b601f821115613af257613ac38161399c565b613acc846139b1565b81016020851015613adb578190505b613aef613ae7856139b1565b830182613a8e565b50505b505050565b600082821c905092915050565b6000613b1560001984600802613af7565b1980831691505092915050565b6000613b2e8383613b04565b9150826002028217905092915050565b613b4782612add565b67ffffffffffffffff811115613b6057613b5f612cbf565b5b613b6a82546132fe565b613b75828285613ab1565b600060209050601f831160018114613ba85760008415613b96578287015190505b613ba08582613b22565b865550613c08565b601f198416613bb68661399c565b60005b82811015613bde57848901518255600182019150602085019450602081019050613bb9565b86831015613bfb5784890151613bf7601f891682613b04565b8355505b6001600288020188555050505b505050505050565b6000613c1b82612b8f565b9150613c2683612b8f565b9250828203905081811115613c3e57613c3d6133dd565b5b92915050565b7f4e487b7100000000000000000000000000000000000000000000000000000000600052603160045260246000fdfea2646970667358221220355c1cac2bdc86be6ed44b5aa9c17ba3bba081a5e14725bcb8e3f261500af45f64736f6c63430008140033",
  "linkReferences": {},
  "deployedLinkReferences": {}
}