{
  "_format": "hh-sol-artifact-1",
  "contractName": "MonstersMeta",
  "sourceName": "contracts/MonstersMeta.sol",
  "abi": [
    {
      "inputs": [],
      "name": "InvalidInitialization",
      "type": "error"
    },
    {
      "inputs": [],
      "name": "NotInitializing",
      "type": "error"
    },
    {
      "inputs": [
        {
          "internalType": "address",
          "name": "owner",
          "type": "address"
        }
      ],
      "name": "OwnableInvalidOwner",
      "type": "error"
    },
    {
      "inputs": [
        {
          "internalType": "address",
          "name": "account",
          "type": "address"
        }
      ],
      "name": "OwnableUnauthorizedAccount",
      "type": "error"
    },
    {
      "anonymous": false,
      "inputs": [
        {
          "indexed": false,
          "internalType": "uint64",
          "name": "version",
          "type": "uint64"
        }
      ],
      "name": "Initialized",
      "type": "event"
    },
    {
      "anonymous": false,
      "inputs": [
        {
          "indexed": true,
          "internalType": "address",
          "name": "previousOwner",
          "type": "address"
        },
        {
          "indexed": true,
          "internalType": "address",
          "name": "newOwner",
          "type": "address"
        }
      ],
      "name": "OwnershipTransferred",
      "type": "event"
    },
    {
      "inputs": [
        {
          "internalType": "uint256",
          "name": "_tokenID",
          "type": "uint256"
        }
      ],
      "name": "_getImage",
      "outputs": [
        {
          "internalType": "string",
          "name": "",
          "type": "string"
        }
      ],
      "stateMutability": "view",
      "type": "function"
    },
    {
      "inputs": [
        {
          "internalType": "uint256",
          "name": "_tokenID",
          "type": "uint256"
        }
      ],
      "name": "_getMetadata",
      "outputs": [
        {
          "internalType": "string",
          "name": "",
          "type": "string"
        }
      ],
      "stateMutability": "view",
      "type": "function"
    },
    {
      "inputs": [
        {
          "internalType": "uint256",
          "name": "_tokenID",
          "type": "uint256"
        }
      ],
      "name": "_getMonsterEnum",
      "outputs": [
        {
          "internalType": "enum IMonstersMeta.Evolution",
          "name": "",
          "type": "uint8"
        }
      ],
      "stateMutability": "view",
      "type": "function"
    },
    {
      "inputs": [
        {
          "internalType": "uint256",
          "name": "_tokenID",
          "type": "uint256"
        }
      ],
      "name": "_getMonsterName",
      "outputs": [
        {
          "internalType": "string",
          "name": "",
          "type": "string"
        }
      ],
      "stateMutability": "view",
      "type": "function"
    },
    {
      "inputs": [
        {
          "internalType": "uint256",
          "name": "_tokenID",
          "type": "uint256"
        }
      ],
      "name": "_getMultiplier",
      "outputs": [
        {
          "internalType": "uint256",
          "name": "",
          "type": "uint256"
        }
      ],
      "stateMutability": "view",
      "type": "function"
    },
    {
      "inputs": [
        {
          "internalType": "address",
          "name": "_user",
          "type": "address"
        },
        {
          "internalType": "uint256[]",
          "name": "_tokenIDs",
          "type": "uint256[]"
        }
      ],
      "name": "evolveMonster",
      "outputs": [],
      "stateMutability": "nonpayable",
      "type": "function"
    },
    {
      "inputs": [
        {
          "internalType": "uint256",
          "name": "_tokenID",
          "type": "uint256"
        }
      ],
      "name": "getMetadata",
      "outputs": [
        {
          "internalType": "string",
          "name": "",
          "type": "string"
        }
      ],
      "stateMutability": "view",
      "type": "function"
    },
    {
      "inputs": [
        {
          "internalType": "uint256",
          "name": "_tokenID",
          "type": "uint256"
        }
      ],
      "name": "getMonsterEvo",
      "outputs": [
        {
          "internalType": "enum IMonstersMeta.Evolution",
          "name": "",
          "type": "uint8"
        }
      ],
      "stateMutability": "view",
      "type": "function"
    },
    {
      "inputs": [],
      "name": "initialize",
      "outputs": [],
      "stateMutability": "nonpayable",
      "type": "function"
    },
    {
      "inputs": [
        {
          "internalType": "uint256",
          "name": "",
          "type": "uint256"
        }
      ],
      "name": "monsterData",
      "outputs": [
        {
          "internalType": "enum IMonstersMeta.Evolution",
          "name": "evo",
          "type": "uint8"
        },
        {
          "internalType": "string",
          "name": "name",
          "type": "string"
        },
        {
          "internalType": "uint256",
          "name": "level",
          "type": "uint256"
        },
        {
          "internalType": "uint256",
          "name": "multiplier",
          "type": "uint256"
        },
        {
          "internalType": "uint256",
          "name": "cooldown",
          "type": "uint256"
        }
      ],
      "stateMutability": "view",
      "type": "function"
    },
    {
      "inputs": [
        {
          "internalType": "enum IMonstersMeta.Evolution",
          "name": "",
          "type": "uint8"
        },
        {
          "internalType": "uint256",
          "name": "",
          "type": "uint256"
        }
      ],
      "name": "monsterImage",
      "outputs": [
        {
          "internalType": "string",
          "name": "",
          "type": "string"
        }
      ],
      "stateMutability": "view",
      "type": "function"
    },
    {
      "inputs": [
        {
          "internalType": "enum IMonstersMeta.Evolution",
          "name": "",
          "type": "uint8"
        },
        {
          "internalType": "uint256",
          "name": "",
          "type": "uint256"
        }
      ],
      "name": "monsterMultiplier",
      "outputs": [
        {
          "internalType": "uint256",
          "name": "",
          "type": "uint256"
        }
      ],
      "stateMutability": "view",
      "type": "function"
    },
    {
      "inputs": [],
      "name": "owner",
      "outputs": [
        {
          "internalType": "address",
          "name": "",
          "type": "address"
        }
      ],
      "stateMutability": "view",
      "type": "function"
    },
    {
      "inputs": [],
      "name": "renounceOwnership",
      "outputs": [],
      "stateMutability": "nonpayable",
      "type": "function"
    },
    {
      "inputs": [
        {
          "internalType": "uint256",
          "name": "_tokenId",
          "type": "uint256"
        },
        {
          "internalType": "uint256",
          "name": "_cooldown",
          "type": "uint256"
        }
      ],
      "name": "setCooldown",
      "outputs": [],
      "stateMutability": "nonpayable",
      "type": "function"
    },
    {
      "inputs": [
        {
          "internalType": "enum IMonstersMeta.Evolution[]",
          "name": "_evo",
          "type": "uint8[]"
        },
        {
          "internalType": "uint256[]",
          "name": "_multiplier",
          "type": "uint256[]"
        },
        {
          "internalType": "string[]",
          "name": "_hash",
          "type": "string[]"
        }
      ],
      "name": "setImage",
      "outputs": [],
      "stateMutability": "nonpayable",
      "type": "function"
    },
    {
      "inputs": [
        {
          "internalType": "enum IMonstersMeta.Evolution[]",
          "name": "_evo",
          "type": "uint8[]"
        },
        {
          "internalType": "uint256[]",
          "name": "_multiplier",
          "type": "uint256[]"
        },
        {
          "internalType": "uint256[]",
          "name": "_mainMultiplier",
          "type": "uint256[]"
        }
      ],
      "name": "setMultiplier",
      "outputs": [],
      "stateMutability": "nonpayable",
      "type": "function"
    },
    {
      "inputs": [
        {
          "internalType": "address",
          "name": "_registry",
          "type": "address"
        }
      ],
      "name": "setRegistry",
      "outputs": [],
      "stateMutability": "nonpayable",
      "type": "function"
    },
    {
      "inputs": [],
      "name": "system",
      "outputs": [
        {
          "internalType": "address",
          "name": "registry",
          "type": "address"
        },
        {
          "internalType": "string",
          "name": "desc",
          "type": "string"
        }
      ],
      "stateMutability": "view",
      "type": "function"
    },
    {
      "inputs": [
        {
          "internalType": "address",
          "name": "newOwner",
          "type": "address"
        }
      ],
      "name": "transferOwnership",
      "outputs": [],
      "stateMutability": "nonpayable",
      "type": "function"
    }
  ],
  "bytecode": "0x608060405234801561001057600080fd5b5061339d806100206000396000f3fe608060405234801561001057600080fd5b506004361061012c5760003560e01c8063a3bc6429116100ad578063dfd60e1911610071578063dfd60e1914610342578063e4c7b34b14610372578063f2fde38b146103a6578063fa5b0551146103c2578063fc7ea507146103f25761012c565b8063a3bc64291461027a578063a50ed19b146102aa578063a574cea4146102c6578063a91ee0dc146102f6578063d6dfdd09146103125761012c565b80637eb0e8be116100f45780637eb0e8be146101d35780638129fc1c146102035780638da5cb5b1461020d5780638f28180a1461022b57806395bf75fd1461025b5761012c565b80633bbf14231461013157806359cd311814610161578063715018a61461017d5780637ce22774146101875780637db2d6f3146101a3575b600080fd5b61014b60048036038101906101469190611c00565b61040e565b6040516101589190611cbd565b60405180910390f35b61017b600480360381019061017691906120a5565b610478565b005b610185610587565b005b6101a1600480360381019061019c919061214c565b61059b565b005b6101bd60048036038101906101b89190611c00565b6106a1565b6040516101ca919061226a565b60405180910390f35b6101ed60048036038101906101e89190611c00565b610722565b6040516101fa919061226a565b60405180910390f35b61020b61074f565b005b610215610982565b60405161022291906122c6565b60405180910390f35b61024560048036038101906102409190611c00565b6109ba565b6040516102529190611cbd565b60405180910390f35b610263610abe565b6040516102719291906122e1565b60405180910390f35b610294600480360381019061028f9190611c00565b610b78565b6040516102a19190611cbd565b60405180910390f35b6102c460048036038101906102bf9190612311565b610e74565b005b6102e060048036038101906102db9190611c00565b610f6c565b6040516102ed9190611cbd565b60405180910390f35b610310600480360381019061030b919061237d565b610f7e565b005b61032c600480360381019061032791906123aa565b610fcc565b6040516103399190611cbd565b60405180910390f35b61035c60048036038101906103579190611c00565b611079565b60405161036991906123f9565b60405180910390f35b61038c60048036038101906103879190611c00565b6110f4565b60405161039d959493929190612414565b60405180910390f35b6103c060048036038101906103bb919061237d565b6111bf565b005b6103dc60048036038101906103d791906123aa565b611245565b6040516103e991906123f9565b60405180910390f35b61040c6004803603810190610407919061246e565b61126a565b005b60606104198261168b565b6000600101610427846109ba565b61043085611759565b604051602001610443949392919061285e565b604051602081830303815290604052604051602001610462919061298c565b6040516020818303038152906040529050919050565b6104806117b3565b80518251146104c4576040517f08c379a00000000000000000000000000000000000000000000000000000000081526004016104bb90612a05565b60405180910390fd5b60005b83518110156105815760006104db826106a1565b905060005b845181101561056c578381815181106104fc576104fb612a25565b5b60200260200101516003600084600581111561051b5761051a6121f3565b5b600581111561052d5761052c6121f3565b5b8152602001908152602001600020600083815260200190815260200160002090816105589190612beb565b50808061056490612cec565b9150506104e0565b5050808061057990612cec565b9150506104c7565b50505050565b61058f6117b3565b610599600061183a565b565b6105a36117b3565b80518251146105e7576040517f08c379a00000000000000000000000000000000000000000000000000000000081526004016105de90612a05565b60405180910390fd5b60005b835181101561069b5760006105fe826106a1565b905060005b84518110156106865783818151811061061f5761061e612a25565b5b60200260200101516002600084600581111561063e5761063d6121f3565b5b60058111156106505761064f6121f3565b5b8152602001908152602001600020600083815260200190815260200160002081905550808061067e90612cec565b915050610603565b5050808061069390612cec565b9150506105ea565b50505050565b60008060046000848152602001908152602001600020600201549050600081036106cf57600091505061071d565b600181036106e157600191505061071d565b600281036106f357600291505061071d565b6003810361070557600391505061071d565b6004810361071757600491505061071d565b60059150505b919050565b60006004600083815260200190815260200160002060000160009054906101000a900460ff169050919050565b6000610759611911565b905060008160000160089054906101000a900460ff1615905060008260000160009054906101000a900467ffffffffffffffff1690506000808267ffffffffffffffff161480156107a75750825b9050600060018367ffffffffffffffff161480156107dc575060003073ffffffffffffffffffffffffffffffffffffffff163b145b9050811580156107ea575080155b15610821576040517ff92ee8a900000000000000000000000000000000000000000000000000000000815260040160405180910390fd5b60018560000160006101000a81548167ffffffffffffffff021916908367ffffffffffffffff16021790555083156108715760018560000160086101000a81548160ff0219169083151502179055505b61087a33611939565b6040518060400160405280600073ffffffffffffffffffffffffffffffffffffffff1681526020016040518060c0016040528060a081526020016132c860a091398152506000808201518160000160006101000a81548173ffffffffffffffffffffffffffffffffffffffff021916908373ffffffffffffffffffffffffffffffffffffffff160217905550602082015181600101908161091b9190612beb565b50905050831561097b5760008560000160086101000a81548160ff0219169083151502179055507fc7f505b2f371ae2175ee4913f4499e1f2633a7b5936321eed1cdaeb6115181d260016040516109729190612d83565b60405180910390a15b5050505050565b60008061098d61194d565b90508060000160009054906101000a900473ffffffffffffffffffffffffffffffffffffffff1691505090565b606060006109c7836106a1565b9050600060046000858152602001908152602001600020600301549050600360008360058111156109fb576109fa6121f3565b5b6005811115610a0d57610a0c6121f3565b5b815260200190815260200160002060008281526020019081526020016000208054610a37906126b1565b80601f0160208091040260200160405190810160405280929190818152602001828054610a63906126b1565b8015610ab05780601f10610a8557610100808354040283529160200191610ab0565b820191906000526020600020905b815481529060010190602001808311610a9357829003601f168201915b505050505092505050919050565b60008060000160009054906101000a900473ffffffffffffffffffffffffffffffffffffffff1690806001018054610af5906126b1565b80601f0160208091040260200160405190810160405280929190818152602001828054610b21906126b1565b8015610b6e5780601f10610b4357610100808354040283529160200191610b6e565b820191906000526020600020905b815481529060010190602001808311610b5157829003601f168201915b5050505050905082565b606060006005811115610b8e57610b8d6121f3565b5b6004600084815260200190815260200160002060000160009054906101000a900460ff166005811115610bc457610bc36121f3565b5b03610c06576040518060400160405280600681526020017f537061726b7900000000000000000000000000000000000000000000000000008152509050610e6f565b60016005811115610c1a57610c196121f3565b5b6004600084815260200190815260200160002060000160009054906101000a900460ff166005811115610c5057610c4f6121f3565b5b03610c92576040518060400160405280600681526020017f536861646f7700000000000000000000000000000000000000000000000000008152509050610e6f565b60026005811115610ca657610ca56121f3565b5b6004600084815260200190815260200160002060000160009054906101000a900460ff166005811115610cdc57610cdb6121f3565b5b03610d1e576040518060400160405280600581526020017f46726f73740000000000000000000000000000000000000000000000000000008152509050610e6f565b60036005811115610d3257610d316121f3565b5b6004600084815260200190815260200160002060000160009054906101000a900460ff166005811115610d6857610d676121f3565b5b03610daa576040518060400160405280600681526020017f4e696d62757300000000000000000000000000000000000000000000000000008152509050610e6f565b60046005811115610dbe57610dbd6121f3565b5b6004600084815260200190815260200160002060000160009054906101000a900460ff166005811115610df457610df36121f3565b5b03610e36576040518060400160405280600681526020017f5a657068797200000000000000000000000000000000000000000000000000008152509050610e6f565b6040518060400160405280600881526020017f4d6f6e7374612d5800000000000000000000000000000000000000000000000081525090505b919050565b60008060000160009054906101000a900473ffffffffffffffffffffffffffffffffffffffff1690508073ffffffffffffffffffffffffffffffffffffffff1663bf40fac16040518163ffffffff1660e01b8152600401610ed490612dea565b602060405180830381865afa158015610ef1573d6000803e3d6000fd5b505050506040513d601f19601f82011682018060405250810190610f159190612e1f565b73ffffffffffffffffffffffffffffffffffffffff163373ffffffffffffffffffffffffffffffffffffffff1614610f4c57600080fd5b816004600085815260200190815260200160002060040181905550505050565b6060610f778261040e565b9050919050565b610f866117b3565b806000800160006101000a81548173ffffffffffffffffffffffffffffffffffffffff021916908373ffffffffffffffffffffffffffffffffffffffff16021790555050565b6003602052816000526040600020602052806000526040600020600091509150508054610ff8906126b1565b80601f0160208091040260200160405190810160405280929190818152602001828054611024906126b1565b80156110715780601f1061104657610100808354040283529160200191611071565b820191906000526020600020905b81548152906001019060200180831161105457829003601f168201915b505050505081565b600080611085836106a1565b9050600060046000858152602001908152602001600020600301549050600260008360058111156110b9576110b86121f3565b5b60058111156110cb576110ca6121f3565b5b815260200190815260200160002060008281526020019081526020016000205492505050919050565b60046020528060005260406000206000915090508060000160009054906101000a900460ff169080600101805461112a906126b1565b80601f0160208091040260200160405190810160405280929190818152602001828054611156906126b1565b80156111a35780601f10611178576101008083540402835291602001916111a3565b820191906000526020600020905b81548152906001019060200180831161118657829003601f168201915b5050505050908060020154908060030154908060040154905085565b6111c76117b3565b600073ffffffffffffffffffffffffffffffffffffffff168173ffffffffffffffffffffffffffffffffffffffff16036112395760006040517f1e4fbdf700000000000000000000000000000000000000000000000000000000815260040161123091906122c6565b60405180910390fd5b6112428161183a565b50565b6002602052816000526040600020602052806000526040600020600091509150505481565b60008060000160009054906101000a900473ffffffffffffffffffffffffffffffffffffffff1690508073ffffffffffffffffffffffffffffffffffffffff1663bf40fac16040518163ffffffff1660e01b81526004016112ca90612e98565b602060405180830381865afa1580156112e7573d6000803e3d6000fd5b505050506040513d601f19601f8201168201806040525081019061130b9190612e1f565b73ffffffffffffffffffffffffffffffffffffffff163373ffffffffffffffffffffffffffffffffffffffff161461134257600080fd5b60008060000160009054906101000a900473ffffffffffffffffffffffffffffffffffffffff16905060008173ffffffffffffffffffffffffffffffffffffffff1663bf40fac16040518163ffffffff1660e01b81526004016113a490612e98565b602060405180830381865afa1580156113c1573d6000803e3d6000fd5b505050506040513d601f19601f820116820180604052508101906113e59190612e1f565b905060046000856001815181106113ff576113fe612a25565b5b6020026020010151815260200190815260200160002060020154600460008660008151811061143157611430612a25565b5b60200260200101518152602001908152602001600020600201541480156114b95750600460008560028151811061146b5761146a612a25565b5b6020026020010151815260200190815260200160002060020154600460008660008151811061149d5761149c612a25565b5b6020026020010151815260200190815260200160002060020154145b6114f8576040517f08c379a00000000000000000000000000000000000000000000000000000000081526004016114ef90612f04565b60405180910390fd5b60005b8451811015611618578173ffffffffffffffffffffffffffffffffffffffff16636352211e86838151811061153357611532612a25565b5b60200260200101516040518263ffffffff1660e01b815260040161155791906123f9565b602060405180830381865afa158015611574573d6000803e3d6000fd5b505050506040513d601f19601f820116820180604052508101906115989190612e1f565b73ffffffffffffffffffffffffffffffffffffffff168673ffffffffffffffffffffffffffffffffffffffff1614611605576040517f08c379a00000000000000000000000000000000000000000000000000000000081526004016115fc90612f70565b60405180910390fd5b808061161090612cec565b9150506114fb565b508073ffffffffffffffffffffffffffffffffffffffff1663b80f55c9856040518263ffffffff1660e01b8152600401611652919061304e565b600060405180830381600087803b15801561166c57600080fd5b505af1158015611680573d6000803e3d6000fd5b505050505050505050565b60606000600161169a84611975565b01905060008167ffffffffffffffff8111156116b9576116b8611ce4565b5b6040519080825280601f01601f1916602001820160405280156116eb5781602001600182028036833780820191505090505b509050600082602001820190505b60011561174e578080600190039150507f3031323334353637383961626364656600000000000000000000000000000000600a86061a8153600a858161174257611741613070565b5b049450600085036116f9575b819350505050919050565b606061176482610b78565b61176d83611079565b60405160200161177e92919061323c565b60405160208183030381529060405260405160200161179d919061298c565b6040516020818303038152906040529050919050565b6117bb611ac8565b73ffffffffffffffffffffffffffffffffffffffff166117d9610982565b73ffffffffffffffffffffffffffffffffffffffff1614611838576117fc611ac8565b6040517f118cdaa700000000000000000000000000000000000000000000000000000000815260040161182f91906122c6565b60405180910390fd5b565b600061184461194d565b905060008160000160009054906101000a900473ffffffffffffffffffffffffffffffffffffffff169050828260000160006101000a81548173ffffffffffffffffffffffffffffffffffffffff021916908373ffffffffffffffffffffffffffffffffffffffff1602179055508273ffffffffffffffffffffffffffffffffffffffff168173ffffffffffffffffffffffffffffffffffffffff167f8be0079c531659141344cd1fd0a4f28419497f9722a3daafe3b4186f6b6457e060405160405180910390a3505050565b60007ff0c57e16840df040f15088dc2f81fe391c3923bec73e23a9662efc9c229c6a00905090565b611941611ad0565b61194a81611b10565b50565b60007f9016d09d72d40fdae2fd8ceac6b6234c7706214fd39c1cd1e609a0528c199300905090565b600080600090507a184f03e93ff9f4daa797ed6e38ed64bf6a1f01000000000000000083106119d3577a184f03e93ff9f4daa797ed6e38ed64bf6a1f01000000000000000083816119c9576119c8613070565b5b0492506040810190505b6d04ee2d6d415b85acef81000000008310611a10576d04ee2d6d415b85acef81000000008381611a0657611a05613070565b5b0492506020810190505b662386f26fc100008310611a3f57662386f26fc100008381611a3557611a34613070565b5b0492506010810190505b6305f5e1008310611a68576305f5e1008381611a5e57611a5d613070565b5b0492506008810190505b6127108310611a8d576127108381611a8357611a82613070565b5b0492506004810190505b60648310611ab05760648381611aa657611aa5613070565b5b0492506002810190505b600a8310611abf576001810190505b80915050919050565b600033905090565b611ad8611b96565b611b0e576040517fd7e6bcf800000000000000000000000000000000000000000000000000000000815260040160405180910390fd5b565b611b18611ad0565b600073ffffffffffffffffffffffffffffffffffffffff168173ffffffffffffffffffffffffffffffffffffffff1603611b8a5760006040517f1e4fbdf7000000000000000000000000000000000000000000000000000000008152600401611b8191906122c6565b60405180910390fd5b611b938161183a565b50565b6000611ba0611911565b60000160089054906101000a900460ff16905090565b6000604051905090565b600080fd5b600080fd5b6000819050919050565b611bdd81611bca565b8114611be857600080fd5b50565b600081359050611bfa81611bd4565b92915050565b600060208284031215611c1657611c15611bc0565b5b6000611c2484828501611beb565b91505092915050565b600081519050919050565b600082825260208201905092915050565b60005b83811015611c67578082015181840152602081019050611c4c565b60008484015250505050565b6000601f19601f8301169050919050565b6000611c8f82611c2d565b611c998185611c38565b9350611ca9818560208601611c49565b611cb281611c73565b840191505092915050565b60006020820190508181036000830152611cd78184611c84565b905092915050565b600080fd5b7f4e487b7100000000000000000000000000000000000000000000000000000000600052604160045260246000fd5b611d1c82611c73565b810181811067ffffffffffffffff82111715611d3b57611d3a611ce4565b5b80604052505050565b6000611d4e611bb6565b9050611d5a8282611d13565b919050565b600067ffffffffffffffff821115611d7a57611d79611ce4565b5b602082029050602081019050919050565b600080fd5b60068110611d9d57600080fd5b50565b600081359050611daf81611d90565b92915050565b6000611dc8611dc384611d5f565b611d44565b90508083825260208201905060208402830185811115611deb57611dea611d8b565b5b835b81811015611e145780611e008882611da0565b845260208401935050602081019050611ded565b5050509392505050565b600082601f830112611e3357611e32611cdf565b5b8135611e43848260208601611db5565b91505092915050565b600067ffffffffffffffff821115611e6757611e66611ce4565b5b602082029050602081019050919050565b6000611e8b611e8684611e4c565b611d44565b90508083825260208201905060208402830185811115611eae57611ead611d8b565b5b835b81811015611ed75780611ec38882611beb565b845260208401935050602081019050611eb0565b5050509392505050565b600082601f830112611ef657611ef5611cdf565b5b8135611f06848260208601611e78565b91505092915050565b600067ffffffffffffffff821115611f2a57611f29611ce4565b5b602082029050602081019050919050565b600080fd5b600067ffffffffffffffff821115611f5b57611f5a611ce4565b5b611f6482611c73565b9050602081019050919050565b82818337600083830152505050565b6000611f93611f8e84611f40565b611d44565b905082815260208101848484011115611faf57611fae611f3b565b5b611fba848285611f71565b509392505050565b600082601f830112611fd757611fd6611cdf565b5b8135611fe7848260208601611f80565b91505092915050565b6000612003611ffe84611f0f565b611d44565b9050808382526020820190506020840283018581111561202657612025611d8b565b5b835b8181101561206d57803567ffffffffffffffff81111561204b5761204a611cdf565b5b8086016120588982611fc2565b85526020850194505050602081019050612028565b5050509392505050565b600082601f83011261208c5761208b611cdf565b5b813561209c848260208601611ff0565b91505092915050565b6000806000606084860312156120be576120bd611bc0565b5b600084013567ffffffffffffffff8111156120dc576120db611bc5565b5b6120e886828701611e1e565b935050602084013567ffffffffffffffff81111561210957612108611bc5565b5b61211586828701611ee1565b925050604084013567ffffffffffffffff81111561213657612135611bc5565b5b61214286828701612077565b9150509250925092565b60008060006060848603121561216557612164611bc0565b5b600084013567ffffffffffffffff81111561218357612182611bc5565b5b61218f86828701611e1e565b935050602084013567ffffffffffffffff8111156121b0576121af611bc5565b5b6121bc86828701611ee1565b925050604084013567ffffffffffffffff8111156121dd576121dc611bc5565b5b6121e986828701611ee1565b9150509250925092565b7f4e487b7100000000000000000000000000000000000000000000000000000000600052602160045260246000fd5b60068110612233576122326121f3565b5b50565b600081905061224482612222565b919050565b600061225482612236565b9050919050565b61226481612249565b82525050565b600060208201905061227f600083018461225b565b92915050565b600073ffffffffffffffffffffffffffffffffffffffff82169050919050565b60006122b082612285565b9050919050565b6122c0816122a5565b82525050565b60006020820190506122db60008301846122b7565b92915050565b60006040820190506122f660008301856122b7565b81810360208301526123088184611c84565b90509392505050565b6000806040838503121561232857612327611bc0565b5b600061233685828601611beb565b925050602061234785828601611beb565b9150509250929050565b61235a816122a5565b811461236557600080fd5b50565b60008135905061237781612351565b92915050565b60006020828403121561239357612392611bc0565b5b60006123a184828501612368565b91505092915050565b600080604083850312156123c1576123c0611bc0565b5b60006123cf85828601611da0565b92505060206123e085828601611beb565b9150509250929050565b6123f381611bca565b82525050565b600060208201905061240e60008301846123ea565b92915050565b600060a082019050612429600083018861225b565b818103602083015261243b8187611c84565b905061244a60408301866123ea565b61245760608301856123ea565b61246460808301846123ea565b9695505050505050565b6000806040838503121561248557612484611bc0565b5b600061249385828601612368565b925050602083013567ffffffffffffffff8111156124b4576124b3611bc5565b5b6124c085828601611ee1565b9150509250929050565b600081905092915050565b7f7b00000000000000000000000000000000000000000000000000000000000000600082015250565b600061250b6001836124ca565b9150612516826124d5565b600182019050919050565b7f226e616d65223a00000000000000000000000000000000000000000000000000600082015250565b60006125576007836124ca565b915061256282612521565b600782019050919050565b7f536f6c74696365204d6f6e737465722023000000000000000000000000000000600082015250565b60006125a36011836124ca565b91506125ae8261256d565b601182019050919050565b60006125c482611c2d565b6125ce81856124ca565b93506125de818560208601611c49565b80840191505092915050565b7f2c00000000000000000000000000000000000000000000000000000000000000600082015250565b60006126206001836124ca565b915061262b826125ea565b600182019050919050565b7f226465736372697074696f6e223a000000000000000000000000000000000000600082015250565b600061266c600e836124ca565b915061267782612636565b600e82019050919050565b7f4e487b7100000000000000000000000000000000000000000000000000000000600052602260045260246000fd5b600060028204905060018216806126c957607f821691505b6020821081036126dc576126db612682565b5b50919050565b60008190508160005260206000209050919050565b60008154612704816126b1565b61270e81866124ca565b94506001821660008114612729576001811461273e57612771565b60ff1983168652811515820286019350612771565b612747856126e2565b60005b838110156127695781548189015260018201915060208101905061274a565b838801955050505b50505092915050565b7f22696d616765223a000000000000000000000000000000000000000000000000600082015250565b60006127b06008836124ca565b91506127bb8261277a565b600882019050919050565b7f2261747472696275746573223a00000000000000000000000000000000000000600082015250565b60006127fc600d836124ca565b9150612807826127c6565b600d82019050919050565b7f7d00000000000000000000000000000000000000000000000000000000000000600082015250565b60006128486001836124ca565b915061285382612812565b600182019050919050565b6000612869826124fe565b91506128748261254a565b915061287f82612596565b915061288b82876125b9565b915061289682612613565b91506128a18261265f565b91506128ad82866126f7565b91506128b8826127a3565b91506128c482856125b9565b91506128cf826127ef565b91506128db82846125b9565b91506128e68261283b565b915081905095945050505050565b7f5b00000000000000000000000000000000000000000000000000000000000000600082015250565b600061292a6001836124ca565b9150612935826128f4565b600182019050919050565b7f5d00000000000000000000000000000000000000000000000000000000000000600082015250565b60006129766001836124ca565b915061298182612940565b600182019050919050565b60006129978261291d565b91506129a382846125b9565b91506129ae82612969565b915081905092915050565b7f536f6c74696365203a3a204e6f7420657175616c206461746100000000000000600082015250565b60006129ef601983611c38565b91506129fa826129b9565b602082019050919050565b60006020820190508181036000830152612a1e816129e2565b9050919050565b7f4e487b7100000000000000000000000000000000000000000000000000000000600052603260045260246000fd5b60006020601f8301049050919050565b600082821b905092915050565b600060088302612aa17fffffffffffffffffffffffffffffffffffffffffffffffffffffffffffffffff82612a64565b612aab8683612a64565b95508019841693508086168417925050509392505050565b6000819050919050565b6000612ae8612ae3612ade84611bca565b612ac3565b611bca565b9050919050565b6000819050919050565b612b0283612acd565b612b16612b0e82612aef565b848454612a71565b825550505050565b600090565b612b2b612b1e565b612b36818484612af9565b505050565b5b81811015612b5a57612b4f600082612b23565b600181019050612b3c565b5050565b601f821115612b9f57612b70816126e2565b612b7984612a54565b81016020851015612b88578190505b612b9c612b9485612a54565b830182612b3b565b50505b505050565b600082821c905092915050565b6000612bc260001984600802612ba4565b1980831691505092915050565b6000612bdb8383612bb1565b9150826002028217905092915050565b612bf482611c2d565b67ffffffffffffffff811115612c0d57612c0c611ce4565b5b612c1782546126b1565b612c22828285612b5e565b600060209050601f831160018114612c555760008415612c43578287015190505b612c4d8582612bcf565b865550612cb5565b601f198416612c63866126e2565b60005b82811015612c8b57848901518255600182019150602085019450602081019050612c66565b86831015612ca85784890151612ca4601f891682612bb1565b8355505b6001600288020188555050505b505050505050565b7f4e487b7100000000000000000000000000000000000000000000000000000000600052601160045260246000fd5b6000612cf782611bca565b91507fffffffffffffffffffffffffffffffffffffffffffffffffffffffffffffffff8203612d2957612d28612cbd565b5b600182019050919050565b6000819050919050565b600067ffffffffffffffff82169050919050565b6000612d6d612d68612d6384612d34565b612ac3565b612d3e565b9050919050565b612d7d81612d52565b82525050565b6000602082019050612d986000830184612d74565b92915050565b7f4d6f6e7374657273000000000000000000000000000000000000000000000000600082015250565b6000612dd4600883611c38565b9150612ddf82612d9e565b602082019050919050565b60006020820190508181036000830152612e0381612dc7565b9050919050565b600081519050612e1981612351565b92915050565b600060208284031215612e3557612e34611bc0565b5b6000612e4384828501612e0a565b91505092915050565b7f4d6f6e7374657200000000000000000000000000000000000000000000000000600082015250565b6000612e82600783611c38565b9150612e8d82612e4c565b602082019050919050565b60006020820190508181036000830152612eb181612e75565b9050919050565b7f536f6c74696365203a3a204e6f7420657175616c206c6576656c000000000000600082015250565b6000612eee601a83611c38565b9150612ef982612eb8565b602082019050919050565b60006020820190508181036000830152612f1d81612ee1565b9050919050565b7f536f6c74696365203a3a204e6f74206f776e6572000000000000000000000000600082015250565b6000612f5a601483611c38565b9150612f6582612f24565b602082019050919050565b60006020820190508181036000830152612f8981612f4d565b9050919050565b600081519050919050565b600082825260208201905092915050565b6000819050602082019050919050565b612fc581611bca565b82525050565b6000612fd78383612fbc565b60208301905092915050565b6000602082019050919050565b6000612ffb82612f90565b6130058185612f9b565b935061301083612fac565b8060005b838110156130415781516130288882612fcb565b975061303383612fe3565b925050600181019050613014565b5085935050505092915050565b600060208201905081810360008301526130688184612ff0565b905092915050565b7f4e487b7100000000000000000000000000000000000000000000000000000000600052601260045260246000fd5b7f74726169745f747970653a000000000000000000000000000000000000000000600082015250565b60006130d5600b836124ca565b91506130e08261309f565b600b82019050919050565b7f45766f6c7574696f6e2c00000000000000000000000000000000000000000000600082015250565b6000613121600a836124ca565b915061312c826130eb565b600a82019050919050565b7f76616c75653a0000000000000000000000000000000000000000000000000000600082015250565b600061316d6006836124ca565b915061317882613137565b600682019050919050565b7f7d7b000000000000000000000000000000000000000000000000000000000000600082015250565b60006131b96002836124ca565b91506131c482613183565b600282019050919050565b7f4d756c7469706c6965722c000000000000000000000000000000000000000000600082015250565b6000613205600b836124ca565b9150613210826131cf565b600b82019050919050565b6000819050919050565b61323661323182611bca565b61321b565b82525050565b6000613247826124fe565b9150613252826130c8565b915061325d82613114565b915061326882613160565b915061327482856125b9565b915061327f826131ac565b915061328a826130c8565b9150613295826131f8565b91506132a082613160565b91506132ac8284613225565b6020820191506132bb8261283b565b9150819050939250505056fe536f6c74696365204d6f6e7374657273206973206120636f6c6c656374696f6e206f662031302c30303020756e69717565204d6f6e7374657273206c6976696e67206f6e2074686520457468657265756d20626c6f636b636861696e2e2045616368204d6f6e737465722069732072616e646f6d6c792067656e65726174656420616e642068617320756e69717565206368617261637465726973746963732ea26469706673582212209a188f97679282e03ec002a375a025a526d97018c2f8a6eba609b916d3b58f3f64736f6c63430008140033",
  "linkReferences": {},
  "deployedLinkReferences": {}
}