{
  "_format": "hh-sol-artifact-1",
  "contractName": "TimePotion",
  "sourceName": "contracts/TimePotion.sol",
  "abi": [
    {
      "inputs": [
        {
          "internalType": "address",
          "name": "spender",
          "type": "address"
        },
        {
          "internalType": "uint256",
          "name": "allowance",
          "type": "uint256"
        },
        {
          "internalType": "uint256",
          "name": "needed",
          "type": "uint256"
        }
      ],
      "name": "ERC20InsufficientAllowance",
      "type": "error"
    },
    {
      "inputs": [
        {
          "internalType": "address",
          "name": "sender",
          "type": "address"
        },
        {
          "internalType": "uint256",
          "name": "balance",
          "type": "uint256"
        },
        {
          "internalType": "uint256",
          "name": "needed",
          "type": "uint256"
        }
      ],
      "name": "ERC20InsufficientBalance",
      "type": "error"
    },
    {
      "inputs": [
        {
          "internalType": "address",
          "name": "approver",
          "type": "address"
        }
      ],
      "name": "ERC20InvalidApprover",
      "type": "error"
    },
    {
      "inputs": [
        {
          "internalType": "address",
          "name": "receiver",
          "type": "address"
        }
      ],
      "name": "ERC20InvalidReceiver",
      "type": "error"
    },
    {
      "inputs": [
        {
          "internalType": "address",
          "name": "sender",
          "type": "address"
        }
      ],
      "name": "ERC20InvalidSender",
      "type": "error"
    },
    {
      "inputs": [
        {
          "internalType": "address",
          "name": "spender",
          "type": "address"
        }
      ],
      "name": "ERC20InvalidSpender",
      "type": "error"
    },
    {
      "inputs": [],
      "name": "InvalidInitialization",
      "type": "error"
    },
    {
      "inputs": [],
      "name": "NotInitializing",
      "type": "error"
    },
    {
      "inputs": [
        {
          "internalType": "address",
          "name": "owner",
          "type": "address"
        }
      ],
      "name": "OwnableInvalidOwner",
      "type": "error"
    },
    {
      "inputs": [
        {
          "internalType": "address",
          "name": "account",
          "type": "address"
        }
      ],
      "name": "OwnableUnauthorizedAccount",
      "type": "error"
    },
    {
      "anonymous": false,
      "inputs": [
        {
          "indexed": true,
          "internalType": "address",
          "name": "owner",
          "type": "address"
        },
        {
          "indexed": true,
          "internalType": "address",
          "name": "spender",
          "type": "address"
        },
        {
          "indexed": false,
          "internalType": "uint256",
          "name": "value",
          "type": "uint256"
        }
      ],
      "name": "Approval",
      "type": "event"
    },
    {
      "anonymous": false,
      "inputs": [
        {
          "indexed": false,
          "internalType": "uint64",
          "name": "version",
          "type": "uint64"
        }
      ],
      "name": "Initialized",
      "type": "event"
    },
    {
      "anonymous": false,
      "inputs": [
        {
          "indexed": true,
          "internalType": "address",
          "name": "previousOwner",
          "type": "address"
        },
        {
          "indexed": true,
          "internalType": "address",
          "name": "newOwner",
          "type": "address"
        }
      ],
      "name": "OwnershipTransferred",
      "type": "event"
    },
    {
      "anonymous": false,
      "inputs": [
        {
          "indexed": true,
          "internalType": "address",
          "name": "from",
          "type": "address"
        },
        {
          "indexed": true,
          "internalType": "address",
          "name": "to",
          "type": "address"
        },
        {
          "indexed": false,
          "internalType": "uint256",
          "name": "value",
          "type": "uint256"
        }
      ],
      "name": "Transfer",
      "type": "event"
    },
    {
      "inputs": [
        {
          "internalType": "address",
          "name": "owner",
          "type": "address"
        },
        {
          "internalType": "address",
          "name": "spender",
          "type": "address"
        }
      ],
      "name": "allowance",
      "outputs": [
        {
          "internalType": "uint256",
          "name": "",
          "type": "uint256"
        }
      ],
      "stateMutability": "view",
      "type": "function"
    },
    {
      "inputs": [
        {
          "internalType": "address",
          "name": "spender",
          "type": "address"
        },
        {
          "internalType": "uint256",
          "name": "value",
          "type": "uint256"
        }
      ],
      "name": "approve",
      "outputs": [
        {
          "internalType": "bool",
          "name": "",
          "type": "bool"
        }
      ],
      "stateMutability": "nonpayable",
      "type": "function"
    },
    {
      "inputs": [
        {
          "internalType": "address",
          "name": "account",
          "type": "address"
        }
      ],
      "name": "balanceOf",
      "outputs": [
        {
          "internalType": "uint256",
          "name": "",
          "type": "uint256"
        }
      ],
      "stateMutability": "view",
      "type": "function"
    },
    {
      "inputs": [],
      "name": "decimals",
      "outputs": [
        {
          "internalType": "uint8",
          "name": "",
          "type": "uint8"
        }
      ],
      "stateMutability": "view",
      "type": "function"
    },
    {
      "inputs": [],
      "name": "initialize",
      "outputs": [],
      "stateMutability": "nonpayable",
      "type": "function"
    },
    {
      "inputs": [
        {
          "internalType": "address",
          "name": "",
          "type": "address"
        }
      ],
      "name": "isSupportedDex",
      "outputs": [
        {
          "internalType": "bool",
          "name": "",
          "type": "bool"
        }
      ],
      "stateMutability": "view",
      "type": "function"
    },
    {
      "inputs": [],
      "name": "maxBuy",
      "outputs": [
        {
          "internalType": "uint256",
          "name": "",
          "type": "uint256"
        }
      ],
      "stateMutability": "view",
      "type": "function"
    },
    {
      "inputs": [
        {
          "internalType": "address",
          "name": "_user",
          "type": "address"
        },
        {
          "internalType": "uint256",
          "name": "_amount",
          "type": "uint256"
        }
      ],
      "name": "mint",
      "outputs": [],
      "stateMutability": "nonpayable",
      "type": "function"
    },
    {
      "inputs": [],
      "name": "name",
      "outputs": [
        {
          "internalType": "string",
          "name": "",
          "type": "string"
        }
      ],
      "stateMutability": "view",
      "type": "function"
    },
    {
      "inputs": [],
      "name": "owner",
      "outputs": [
        {
          "internalType": "address",
          "name": "",
          "type": "address"
        }
      ],
      "stateMutability": "view",
      "type": "function"
    },
    {
      "inputs": [],
      "name": "renounceOwnership",
      "outputs": [],
      "stateMutability": "nonpayable",
      "type": "function"
    },
    {
      "inputs": [
        {
          "internalType": "address",
          "name": "_dex",
          "type": "address"
        },
        {
          "internalType": "bool",
          "name": "_support",
          "type": "bool"
        }
      ],
      "name": "setSupportDex",
      "outputs": [],
      "stateMutability": "nonpayable",
      "type": "function"
    },
    {
      "inputs": [
        {
          "internalType": "uint256",
          "name": "_team",
          "type": "uint256"
        },
        {
          "internalType": "uint256",
          "name": "_dev",
          "type": "uint256"
        },
        {
          "internalType": "uint256",
          "name": "_liquidity",
          "type": "uint256"
        }
      ],
      "name": "setTax",
      "outputs": [],
      "stateMutability": "nonpayable",
      "type": "function"
    },
    {
      "inputs": [],
      "name": "setToggleTax",
      "outputs": [],
      "stateMutability": "nonpayable",
      "type": "function"
    },
    {
      "inputs": [],
      "name": "symbol",
      "outputs": [
        {
          "internalType": "string",
          "name": "",
          "type": "string"
        }
      ],
      "stateMutability": "view",
      "type": "function"
    },
    {
      "inputs": [],
      "name": "tax",
      "outputs": [
        {
          "internalType": "uint256",
          "name": "team",
          "type": "uint256"
        },
        {
          "internalType": "uint256",
          "name": "dev",
          "type": "uint256"
        },
        {
          "internalType": "uint256",
          "name": "liquidity",
          "type": "uint256"
        },
        {
          "internalType": "bool",
          "name": "isOn",
          "type": "bool"
        }
      ],
      "stateMutability": "view",
      "type": "function"
    },
    {
      "inputs": [],
      "name": "totalSupply",
      "outputs": [
        {
          "internalType": "uint256",
          "name": "",
          "type": "uint256"
        }
      ],
      "stateMutability": "view",
      "type": "function"
    },
    {
      "inputs": [
        {
          "internalType": "address",
          "name": "to",
          "type": "address"
        },
        {
          "internalType": "uint256",
          "name": "value",
          "type": "uint256"
        }
      ],
      "name": "transfer",
      "outputs": [
        {
          "internalType": "bool",
          "name": "",
          "type": "bool"
        }
      ],
      "stateMutability": "nonpayable",
      "type": "function"
    },
    {
      "inputs": [
        {
          "internalType": "address",
          "name": "from",
          "type": "address"
        },
        {
          "internalType": "address",
          "name": "to",
          "type": "address"
        },
        {
          "internalType": "uint256",
          "name": "value",
          "type": "uint256"
        }
      ],
      "name": "transferFrom",
      "outputs": [
        {
          "internalType": "bool",
          "name": "",
          "type": "bool"
        }
      ],
      "stateMutability": "nonpayable",
      "type": "function"
    },
    {
      "inputs": [
        {
          "internalType": "address",
          "name": "newOwner",
          "type": "address"
        }
      ],
      "name": "transferOwnership",
      "outputs": [],
      "stateMutability": "nonpayable",
      "type": "function"
    },
    {
      "inputs": [
        {
          "internalType": "uint256",
          "name": "",
          "type": "uint256"
        }
      ],
      "name": "whitelisted",
      "outputs": [
        {
          "internalType": "address",
          "name": "",
          "type": "address"
        }
      ],
      "stateMutability": "view",
      "type": "function"
    }
  ],
  "bytecode": "0x608060405234801561001057600080fd5b50612198806100206000396000f3fe608060405234801561001057600080fd5b50600436106101375760003560e01c80638129fc1c116100b8578063a9059cbb1161007c578063a9059cbb1461030b578063a983e4c81461033b578063dd62ed3e14610357578063f2fde38b14610387578063f756a237146103a3578063f83f74ea146103d357610137565b80638129fc1c1461029a578063826c7d3d146102a45780638da5cb5b146102ae57806395d89b41146102cc57806399c8d556146102ea57610137565b80633d4efe09116100ff5780633d4efe09146101f657806340c10f191461022657806370a082311461024257806370db69d614610272578063715018a61461029057610137565b806306fdde031461013c578063095ea7b31461015a57806318160ddd1461018a57806323b872dd146101a8578063313ce567146101d8575b600080fd5b6101446103ef565b604051610151919061189f565b60405180910390f35b610174600480360381019061016f919061195a565b610490565b60405161018191906119b5565b60405180910390f35b6101926104b3565b60405161019f91906119df565b60405180910390f35b6101c260048036038101906101bd91906119fa565b6104cb565b6040516101cf91906119b5565b60405180910390f35b6101e06106cf565b6040516101ed9190611a69565b60405180910390f35b610210600480360381019061020b9190611a84565b6106d8565b60405161021d9190611ac0565b60405180910390f35b610240600480360381019061023b919061195a565b610717565b005b61025c60048036038101906102579190611adb565b610725565b60405161026991906119df565b60405180910390f35b61027a61077c565b60405161028791906119df565b60405180910390f35b610298610782565b005b6102a2610796565b005b6102ac610ad3565b005b6102b6610b0d565b6040516102c39190611ac0565b60405180910390f35b6102d4610b45565b6040516102e1919061189f565b60405180910390f35b6102f2610be6565b6040516103029493929190611b08565b60405180910390f35b6103256004803603810190610320919061195a565b610c11565b60405161033291906119b5565b60405180910390f35b61035560048036038101906103509190611b4d565b610c34565b005b610371600480360381019061036c9190611ba0565b610c5e565b60405161037e91906119df565b60405180910390f35b6103a1600480360381019061039c9190611adb565b610cf3565b005b6103bd60048036038101906103b89190611adb565b610d79565b6040516103ca91906119b5565b60405180910390f35b6103ed60048036038101906103e89190611c0c565b610d99565b005b606060006103fb610dfc565b905080600301805461040c90611c7b565b80601f016020809104026020016040519081016040528092919081815260200182805461043890611c7b565b80156104855780601f1061045a57610100808354040283529160200191610485565b820191906000526020600020905b81548152906001019060200180831161046857829003601f168201915b505050505091505090565b60008061049b610e24565b90506104a8818585610e2c565b600191505092915050565b6000806104be610dfc565b9050806002015491505090565b600080339050600660003373ffffffffffffffffffffffffffffffffffffffff1673ffffffffffffffffffffffffffffffffffffffff16815260200190815260200160002060009054906101000a900460ff1615801561053a5750600060030160009054906101000a900460ff165b156106ad57600060646000800154856105539190611cdb565b61055d9190611d4c565b905060006064600060010154866105749190611cdb565b61057e9190611d4c565b905060006064600060020154876105959190611cdb565b61059f9190611d4c565b905060008183856105b09190611d7d565b6105ba9190611d7d565b90506106068960056000815481106105d5576105d4611db1565b5b9060005260206000200160009054906101000a900473ffffffffffffffffffffffffffffffffffffffff1686610e3e565b61065089600560018154811061061f5761061e611db1565b5b9060005260206000200160009054906101000a900473ffffffffffffffffffffffffffffffffffffffff1685610e3e565b61069a89600560028154811061066957610668611db1565b5b9060005260206000200160009054906101000a900473ffffffffffffffffffffffffffffffffffffffff1684610e3e565b80876106a69190611de0565b9650505050505b6106b8858285610f32565b6106c3858585610e3e565b60019150509392505050565b60006012905090565b600581815481106106e857600080fd5b906000526020600020016000915054906101000a900473ffffffffffffffffffffffffffffffffffffffff1681565b6107218282610fc6565b5050565b600080610730610dfc565b90508060000160008473ffffffffffffffffffffffffffffffffffffffff1673ffffffffffffffffffffffffffffffffffffffff16815260200190815260200160002054915050919050565b60045481565b61078a611048565b61079460006110cf565b565b60006107a06111a6565b905060008160000160089054906101000a900460ff1615905060008260000160009054906101000a900467ffffffffffffffff1690506000808267ffffffffffffffff161480156107ee5750825b9050600060018367ffffffffffffffff16148015610823575060003073ffffffffffffffffffffffffffffffffffffffff163b145b905081158015610831575080155b15610868576040517ff92ee8a900000000000000000000000000000000000000000000000000000000815260040160405180910390fd5b60018560000160006101000a81548167ffffffffffffffff021916908367ffffffffffffffff16021790555083156108b85760018560000160086101000a81548160ff0219169083151502179055505b6108c1336111ce565b6109356040518060400160405280600a81526020017f54696d65506f74696f6e000000000000000000000000000000000000000000008152506040518060400160405280600381526020017f54504e00000000000000000000000000000000000000000000000000000000008152506111e2565b6101f4600481905550600367ffffffffffffffff81111561095957610958611e14565b5b6040519080825280602002602001820160405280156109875781602001602082028036833780820191505090505b506005908051906020019061099d929190611768565b503360056000815481106109b4576109b3611db1565b5b9060005260206000200160006101000a81548173ffffffffffffffffffffffffffffffffffffffff021916908373ffffffffffffffffffffffffffffffffffffffff16021790555060006005600181548110610a1357610a12611db1565b5b9060005260206000200160006101000a81548173ffffffffffffffffffffffffffffffffffffffff021916908373ffffffffffffffffffffffffffffffffffffffff160217905550610a70336a52b7d2dcc80cd2e4000000610fc6565b8315610acc5760008560000160086101000a81548160ff0219169083151502179055507fc7f505b2f371ae2175ee4913f4499e1f2633a7b5936321eed1cdaeb6115181d26001604051610ac39190611e9c565b60405180910390a15b5050505050565b610adb611048565b600060030160009054906101000a900460ff1615600060030160006101000a81548160ff021916908315150217905550565b600080610b186111f8565b90508060000160009054906101000a900473ffffffffffffffffffffffffffffffffffffffff1691505090565b60606000610b51610dfc565b9050806004018054610b6290611c7b565b80601f0160208091040260200160405190810160405280929190818152602001828054610b8e90611c7b565b8015610bdb5780601f10610bb057610100808354040283529160200191610bdb565b820191906000526020600020905b815481529060010190602001808311610bbe57829003601f168201915b505050505091505090565b60008060000154908060010154908060020154908060030160009054906101000a900460ff16905084565b600080610c1c610e24565b9050610c29818585610e3e565b600191505092915050565b610c3c611048565b8260008001819055508160006001018190555080600060020181905550505050565b600080610c69610dfc565b90508060010160008573ffffffffffffffffffffffffffffffffffffffff1673ffffffffffffffffffffffffffffffffffffffff16815260200190815260200160002060008473ffffffffffffffffffffffffffffffffffffffff1673ffffffffffffffffffffffffffffffffffffffff1681526020019081526020016000205491505092915050565b610cfb611048565b600073ffffffffffffffffffffffffffffffffffffffff168173ffffffffffffffffffffffffffffffffffffffff1603610d6d5760006040517f1e4fbdf7000000000000000000000000000000000000000000000000000000008152600401610d649190611ac0565b60405180910390fd5b610d76816110cf565b50565b60066020528060005260406000206000915054906101000a900460ff1681565b610da1611048565b80600660008473ffffffffffffffffffffffffffffffffffffffff1673ffffffffffffffffffffffffffffffffffffffff16815260200190815260200160002060006101000a81548160ff0219169083151502179055505050565b60007f52c63247e1f47db19d5ce0460030c497f067ca4cebf71ba98eeadabe20bace00905090565b600033905090565b610e398383836001611220565b505050565b600073ffffffffffffffffffffffffffffffffffffffff168373ffffffffffffffffffffffffffffffffffffffff1603610eb05760006040517f96c6fd1e000000000000000000000000000000000000000000000000000000008152600401610ea79190611ac0565b60405180910390fd5b600073ffffffffffffffffffffffffffffffffffffffff168273ffffffffffffffffffffffffffffffffffffffff1603610f225760006040517fec442f05000000000000000000000000000000000000000000000000000000008152600401610f199190611ac0565b60405180910390fd5b610f2d838383611406565b505050565b6000610f3e8484610c5e565b90507fffffffffffffffffffffffffffffffffffffffffffffffffffffffffffffffff8114610fc05781811015610fb0578281836040517ffb8f41b2000000000000000000000000000000000000000000000000000000008152600401610fa793929190611eb7565b60405180910390fd5b610fbf84848484036000611220565b5b50505050565b600073ffffffffffffffffffffffffffffffffffffffff168273ffffffffffffffffffffffffffffffffffffffff16036110385760006040517fec442f0500000000000000000000000000000000000000000000000000000000815260040161102f9190611ac0565b60405180910390fd5b61104460008383611406565b5050565b611050610e24565b73ffffffffffffffffffffffffffffffffffffffff1661106e610b0d565b73ffffffffffffffffffffffffffffffffffffffff16146110cd57611091610e24565b6040517f118cdaa70000000000000000000000000000000000000000000000000000000081526004016110c49190611ac0565b60405180910390fd5b565b60006110d96111f8565b905060008160000160009054906101000a900473ffffffffffffffffffffffffffffffffffffffff169050828260000160006101000a81548173ffffffffffffffffffffffffffffffffffffffff021916908373ffffffffffffffffffffffffffffffffffffffff1602179055508273ffffffffffffffffffffffffffffffffffffffff168173ffffffffffffffffffffffffffffffffffffffff167f8be0079c531659141344cd1fd0a4f28419497f9722a3daafe3b4186f6b6457e060405160405180910390a3505050565b60007ff0c57e16840df040f15088dc2f81fe391c3923bec73e23a9662efc9c229c6a00905090565b6111d6611645565b6111df81611685565b50565b6111ea611645565b6111f4828261170b565b5050565b60007f9016d09d72d40fdae2fd8ceac6b6234c7706214fd39c1cd1e609a0528c199300905090565b600061122a610dfc565b9050600073ffffffffffffffffffffffffffffffffffffffff168573ffffffffffffffffffffffffffffffffffffffff160361129e5760006040517fe602df050000000000000000000000000000000000000000000000000000000081526004016112959190611ac0565b60405180910390fd5b600073ffffffffffffffffffffffffffffffffffffffff168473ffffffffffffffffffffffffffffffffffffffff16036113105760006040517f94280d620000000000000000000000000000000000000000000000000000000081526004016113079190611ac0565b60405180910390fd5b828160010160008773ffffffffffffffffffffffffffffffffffffffff1673ffffffffffffffffffffffffffffffffffffffff16815260200190815260200160002060008673ffffffffffffffffffffffffffffffffffffffff1673ffffffffffffffffffffffffffffffffffffffff1681526020019081526020016000208190555081156113ff578373ffffffffffffffffffffffffffffffffffffffff168573ffffffffffffffffffffffffffffffffffffffff167f8c5be1e5ebec7d5bd14f71427d1e84f3dd0314c0f7b2291e5b200ac8c7c3b925856040516113f691906119df565b60405180910390a35b5050505050565b6000611410610dfc565b9050600073ffffffffffffffffffffffffffffffffffffffff168473ffffffffffffffffffffffffffffffffffffffff1603611466578181600201600082825461145a9190611d7d565b9250508190555061153f565b60008160000160008673ffffffffffffffffffffffffffffffffffffffff1673ffffffffffffffffffffffffffffffffffffffff168152602001908152602001600020549050828110156114f5578481846040517fe450d38c0000000000000000000000000000000000000000000000000000000081526004016114ec93929190611eb7565b60405180910390fd5b8281038260000160008773ffffffffffffffffffffffffffffffffffffffff1673ffffffffffffffffffffffffffffffffffffffff16815260200190815260200160002081905550505b600073ffffffffffffffffffffffffffffffffffffffff168373ffffffffffffffffffffffffffffffffffffffff160361158a578181600201600082825403925050819055506115da565b818160000160008573ffffffffffffffffffffffffffffffffffffffff1673ffffffffffffffffffffffffffffffffffffffff168152602001908152602001600020600082825401925050819055505b8273ffffffffffffffffffffffffffffffffffffffff168473ffffffffffffffffffffffffffffffffffffffff167fddf252ad1be2c89b69c2b068fc378daa952ba7f163c4a11628f55a4df523b3ef8460405161163791906119df565b60405180910390a350505050565b61164d611748565b611683576040517fd7e6bcf800000000000000000000000000000000000000000000000000000000815260040160405180910390fd5b565b61168d611645565b600073ffffffffffffffffffffffffffffffffffffffff168173ffffffffffffffffffffffffffffffffffffffff16036116ff5760006040517f1e4fbdf70000000000000000000000000000000000000000000000000000000081526004016116f69190611ac0565b60405180910390fd5b611708816110cf565b50565b611713611645565b600061171d610dfc565b9050828160030190816117309190612090565b50818160040190816117429190612090565b50505050565b60006117526111a6565b60000160089054906101000a900460ff16905090565b8280548282559060005260206000209081019282156117e1579160200282015b828111156117e05782518260006101000a81548173ffffffffffffffffffffffffffffffffffffffff021916908373ffffffffffffffffffffffffffffffffffffffff16021790555091602001919060010190611788565b5b5090506117ee91906117f2565b5090565b5b8082111561180b5760008160009055506001016117f3565b5090565b600081519050919050565b600082825260208201905092915050565b60005b8381101561184957808201518184015260208101905061182e565b60008484015250505050565b6000601f19601f8301169050919050565b60006118718261180f565b61187b818561181a565b935061188b81856020860161182b565b61189481611855565b840191505092915050565b600060208201905081810360008301526118b98184611866565b905092915050565b600080fd5b600073ffffffffffffffffffffffffffffffffffffffff82169050919050565b60006118f1826118c6565b9050919050565b611901816118e6565b811461190c57600080fd5b50565b60008135905061191e816118f8565b92915050565b6000819050919050565b61193781611924565b811461194257600080fd5b50565b6000813590506119548161192e565b92915050565b60008060408385031215611971576119706118c1565b5b600061197f8582860161190f565b925050602061199085828601611945565b9150509250929050565b60008115159050919050565b6119af8161199a565b82525050565b60006020820190506119ca60008301846119a6565b92915050565b6119d981611924565b82525050565b60006020820190506119f460008301846119d0565b92915050565b600080600060608486031215611a1357611a126118c1565b5b6000611a218682870161190f565b9350506020611a328682870161190f565b9250506040611a4386828701611945565b9150509250925092565b600060ff82169050919050565b611a6381611a4d565b82525050565b6000602082019050611a7e6000830184611a5a565b92915050565b600060208284031215611a9a57611a996118c1565b5b6000611aa884828501611945565b91505092915050565b611aba816118e6565b82525050565b6000602082019050611ad56000830184611ab1565b92915050565b600060208284031215611af157611af06118c1565b5b6000611aff8482850161190f565b91505092915050565b6000608082019050611b1d60008301876119d0565b611b2a60208301866119d0565b611b3760408301856119d0565b611b4460608301846119a6565b95945050505050565b600080600060608486031215611b6657611b656118c1565b5b6000611b7486828701611945565b9350506020611b8586828701611945565b9250506040611b9686828701611945565b9150509250925092565b60008060408385031215611bb757611bb66118c1565b5b6000611bc58582860161190f565b9250506020611bd68582860161190f565b9150509250929050565b611be98161199a565b8114611bf457600080fd5b50565b600081359050611c0681611be0565b92915050565b60008060408385031215611c2357611c226118c1565b5b6000611c318582860161190f565b9250506020611c4285828601611bf7565b9150509250929050565b7f4e487b7100000000000000000000000000000000000000000000000000000000600052602260045260246000fd5b60006002820490506001821680611c9357607f821691505b602082108103611ca657611ca5611c4c565b5b50919050565b7f4e487b7100000000000000000000000000000000000000000000000000000000600052601160045260246000fd5b6000611ce682611924565b9150611cf183611924565b9250828202611cff81611924565b91508282048414831517611d1657611d15611cac565b5b5092915050565b7f4e487b7100000000000000000000000000000000000000000000000000000000600052601260045260246000fd5b6000611d5782611924565b9150611d6283611924565b925082611d7257611d71611d1d565b5b828204905092915050565b6000611d8882611924565b9150611d9383611924565b9250828201905080821115611dab57611daa611cac565b5b92915050565b7f4e487b7100000000000000000000000000000000000000000000000000000000600052603260045260246000fd5b6000611deb82611924565b9150611df683611924565b9250828203905081811115611e0e57611e0d611cac565b5b92915050565b7f4e487b7100000000000000000000000000000000000000000000000000000000600052604160045260246000fd5b6000819050919050565b600067ffffffffffffffff82169050919050565b6000819050919050565b6000611e86611e81611e7c84611e43565b611e61565b611e4d565b9050919050565b611e9681611e6b565b82525050565b6000602082019050611eb16000830184611e8d565b92915050565b6000606082019050611ecc6000830186611ab1565b611ed960208301856119d0565b611ee660408301846119d0565b949350505050565b60008190508160005260206000209050919050565b60006020601f8301049050919050565b600082821b905092915050565b600060088302611f507fffffffffffffffffffffffffffffffffffffffffffffffffffffffffffffffff82611f13565b611f5a8683611f13565b95508019841693508086168417925050509392505050565b6000611f8d611f88611f8384611924565b611e61565b611924565b9050919050565b6000819050919050565b611fa783611f72565b611fbb611fb382611f94565b848454611f20565b825550505050565b600090565b611fd0611fc3565b611fdb818484611f9e565b505050565b5b81811015611fff57611ff4600082611fc8565b600181019050611fe1565b5050565b601f8211156120445761201581611eee565b61201e84611f03565b8101602085101561202d578190505b61204161203985611f03565b830182611fe0565b50505b505050565b600082821c905092915050565b600061206760001984600802612049565b1980831691505092915050565b60006120808383612056565b9150826002028217905092915050565b6120998261180f565b67ffffffffffffffff8111156120b2576120b1611e14565b5b6120bc8254611c7b565b6120c7828285612003565b600060209050601f8311600181146120fa57600084156120e8578287015190505b6120f28582612074565b86555061215a565b601f19841661210886611eee565b60005b828110156121305784890151825560018201915060208501945060208101905061210b565b8683101561214d5784890151612149601f891682612056565b8355505b6001600288020188555050505b50505050505056fea2646970667358221220b5a19f6e75b9b39bb92928a5a575d4fa9f0f6f48eed35fc9193b04a36e5306b564736f6c63430008140033",
  "linkReferences": {},
  "deployedLinkReferences": {}
}