{
  "_format": "hh-sol-artifact-1",
  "contractName": "USDT",
  "sourceName": "contracts/USDTPeg.sol",
  "abi": [
    {
      "inputs": [
        {
          "internalType": "address",
          "name": "spender",
          "type": "address"
        },
        {
          "internalType": "uint256",
          "name": "allowance",
          "type": "uint256"
        },
        {
          "internalType": "uint256",
          "name": "needed",
          "type": "uint256"
        }
      ],
      "name": "ERC20InsufficientAllowance",
      "type": "error"
    },
    {
      "inputs": [
        {
          "internalType": "address",
          "name": "sender",
          "type": "address"
        },
        {
          "internalType": "uint256",
          "name": "balance",
          "type": "uint256"
        },
        {
          "internalType": "uint256",
          "name": "needed",
          "type": "uint256"
        }
      ],
      "name": "ERC20InsufficientBalance",
      "type": "error"
    },
    {
      "inputs": [
        {
          "internalType": "address",
          "name": "approver",
          "type": "address"
        }
      ],
      "name": "ERC20InvalidApprover",
      "type": "error"
    },
    {
      "inputs": [
        {
          "internalType": "address",
          "name": "receiver",
          "type": "address"
        }
      ],
      "name": "ERC20InvalidReceiver",
      "type": "error"
    },
    {
      "inputs": [
        {
          "internalType": "address",
          "name": "sender",
          "type": "address"
        }
      ],
      "name": "ERC20InvalidSender",
      "type": "error"
    },
    {
      "inputs": [
        {
          "internalType": "address",
          "name": "spender",
          "type": "address"
        }
      ],
      "name": "ERC20InvalidSpender",
      "type": "error"
    },
    {
      "inputs": [],
      "name": "InvalidInitialization",
      "type": "error"
    },
    {
      "inputs": [],
      "name": "NotInitializing",
      "type": "error"
    },
    {
      "anonymous": false,
      "inputs": [
        {
          "indexed": true,
          "internalType": "address",
          "name": "owner",
          "type": "address"
        },
        {
          "indexed": true,
          "internalType": "address",
          "name": "spender",
          "type": "address"
        },
        {
          "indexed": false,
          "internalType": "uint256",
          "name": "value",
          "type": "uint256"
        }
      ],
      "name": "Approval",
      "type": "event"
    },
    {
      "anonymous": false,
      "inputs": [
        {
          "indexed": false,
          "internalType": "uint64",
          "name": "version",
          "type": "uint64"
        }
      ],
      "name": "Initialized",
      "type": "event"
    },
    {
      "anonymous": false,
      "inputs": [
        {
          "indexed": true,
          "internalType": "address",
          "name": "from",
          "type": "address"
        },
        {
          "indexed": true,
          "internalType": "address",
          "name": "to",
          "type": "address"
        },
        {
          "indexed": false,
          "internalType": "uint256",
          "name": "value",
          "type": "uint256"
        }
      ],
      "name": "Transfer",
      "type": "event"
    },
    {
      "inputs": [
        {
          "internalType": "address",
          "name": "owner",
          "type": "address"
        },
        {
          "internalType": "address",
          "name": "spender",
          "type": "address"
        }
      ],
      "name": "allowance",
      "outputs": [
        {
          "internalType": "uint256",
          "name": "",
          "type": "uint256"
        }
      ],
      "stateMutability": "view",
      "type": "function"
    },
    {
      "inputs": [
        {
          "internalType": "address",
          "name": "spender",
          "type": "address"
        },
        {
          "internalType": "uint256",
          "name": "value",
          "type": "uint256"
        }
      ],
      "name": "approve",
      "outputs": [
        {
          "internalType": "bool",
          "name": "",
          "type": "bool"
        }
      ],
      "stateMutability": "nonpayable",
      "type": "function"
    },
    {
      "inputs": [
        {
          "internalType": "address",
          "name": "account",
          "type": "address"
        }
      ],
      "name": "balanceOf",
      "outputs": [
        {
          "internalType": "uint256",
          "name": "",
          "type": "uint256"
        }
      ],
      "stateMutability": "view",
      "type": "function"
    },
    {
      "inputs": [],
      "name": "decimals",
      "outputs": [
        {
          "internalType": "uint8",
          "name": "",
          "type": "uint8"
        }
      ],
      "stateMutability": "view",
      "type": "function"
    },
    {
      "inputs": [],
      "name": "initialize",
      "outputs": [],
      "stateMutability": "nonpayable",
      "type": "function"
    },
    {
      "inputs": [
        {
          "internalType": "address",
          "name": "_user",
          "type": "address"
        },
        {
          "internalType": "uint256",
          "name": "_amount",
          "type": "uint256"
        }
      ],
      "name": "mint",
      "outputs": [],
      "stateMutability": "nonpayable",
      "type": "function"
    },
    {
      "inputs": [],
      "name": "name",
      "outputs": [
        {
          "internalType": "string",
          "name": "",
          "type": "string"
        }
      ],
      "stateMutability": "view",
      "type": "function"
    },
    {
      "inputs": [],
      "name": "symbol",
      "outputs": [
        {
          "internalType": "string",
          "name": "",
          "type": "string"
        }
      ],
      "stateMutability": "view",
      "type": "function"
    },
    {
      "inputs": [],
      "name": "totalSupply",
      "outputs": [
        {
          "internalType": "uint256",
          "name": "",
          "type": "uint256"
        }
      ],
      "stateMutability": "view",
      "type": "function"
    },
    {
      "inputs": [
        {
          "internalType": "address",
          "name": "to",
          "type": "address"
        },
        {
          "internalType": "uint256",
          "name": "value",
          "type": "uint256"
        }
      ],
      "name": "transfer",
      "outputs": [
        {
          "internalType": "bool",
          "name": "",
          "type": "bool"
        }
      ],
      "stateMutability": "nonpayable",
      "type": "function"
    },
    {
      "inputs": [
        {
          "internalType": "address",
          "name": "from",
          "type": "address"
        },
        {
          "internalType": "address",
          "name": "to",
          "type": "address"
        },
        {
          "internalType": "uint256",
          "name": "value",
          "type": "uint256"
        }
      ],
      "name": "transferFrom",
      "outputs": [
        {
          "internalType": "bool",
          "name": "",
          "type": "bool"
        }
      ],
      "stateMutability": "nonpayable",
      "type": "function"
    }
  ],
  "bytecode": "0x608060405234801561001057600080fd5b506115a6806100206000396000f3fe608060405234801561001057600080fd5b50600436106100a95760003560e01c806340c10f191161007157806340c10f191461016857806370a08231146101845780638129fc1c146101b457806395d89b41146101be578063a9059cbb146101dc578063dd62ed3e1461020c576100a9565b806306fdde03146100ae578063095ea7b3146100cc57806318160ddd146100fc57806323b872dd1461011a578063313ce5671461014a575b600080fd5b6100b661023c565b6040516100c39190610ee3565b60405180910390f35b6100e660048036038101906100e19190610f9e565b6102dd565b6040516100f39190610ff9565b60405180910390f35b610104610300565b6040516101119190611023565b60405180910390f35b610134600480360381019061012f919061103e565b610318565b6040516101419190610ff9565b60405180910390f35b610152610347565b60405161015f91906110ad565b60405180910390f35b610182600480360381019061017d9190610f9e565b610350565b005b61019e600480360381019061019991906110c8565b61035e565b6040516101ab9190611023565b60405180910390f35b6101bc6103b5565b005b6101c66105ae565b6040516101d39190610ee3565b60405180910390f35b6101f660048036038101906101f19190610f9e565b61064f565b6040516102039190610ff9565b60405180910390f35b610226600480360381019061022191906110f5565b610672565b6040516102339190611023565b60405180910390f35b60606000610248610707565b905080600301805461025990611164565b80601f016020809104026020016040519081016040528092919081815260200182805461028590611164565b80156102d25780601f106102a7576101008083540402835291602001916102d2565b820191906000526020600020905b8154815290600101906020018083116102b557829003601f168201915b505050505091505090565b6000806102e861072f565b90506102f5818585610737565b600191505092915050565b60008061030b610707565b9050806002015491505090565b60008061032361072f565b9050610330858285610749565b61033b8585856107dd565b60019150509392505050565b60006012905090565b61035a82826108d1565b5050565b600080610369610707565b90508060000160008473ffffffffffffffffffffffffffffffffffffffff1673ffffffffffffffffffffffffffffffffffffffff16815260200190815260200160002054915050919050565b60006103bf610953565b905060008160000160089054906101000a900460ff1615905060008260000160009054906101000a900467ffffffffffffffff1690506000808267ffffffffffffffff1614801561040d5750825b9050600060018367ffffffffffffffff16148015610442575060003073ffffffffffffffffffffffffffffffffffffffff163b145b905081158015610450575080155b15610487576040517ff92ee8a900000000000000000000000000000000000000000000000000000000815260040160405180910390fd5b60018560000160006101000a81548167ffffffffffffffff021916908367ffffffffffffffff16021790555083156104d75760018560000160086101000a81548160ff0219169083151502179055505b61054b6040518060400160405280600481526020017f55534454000000000000000000000000000000000000000000000000000000008152506040518060400160405280600481526020017f555344540000000000000000000000000000000000000000000000000000000081525061097b565b83156105a75760008560000160086101000a81548160ff0219169083151502179055507fc7f505b2f371ae2175ee4913f4499e1f2633a7b5936321eed1cdaeb6115181d2600160405161059e91906111ee565b60405180910390a15b5050505050565b606060006105ba610707565b90508060040180546105cb90611164565b80601f01602080910402602001604051908101604052809291908181526020018280546105f790611164565b80156106445780601f1061061957610100808354040283529160200191610644565b820191906000526020600020905b81548152906001019060200180831161062757829003601f168201915b505050505091505090565b60008061065a61072f565b90506106678185856107dd565b600191505092915050565b60008061067d610707565b90508060010160008573ffffffffffffffffffffffffffffffffffffffff1673ffffffffffffffffffffffffffffffffffffffff16815260200190815260200160002060008473ffffffffffffffffffffffffffffffffffffffff1673ffffffffffffffffffffffffffffffffffffffff1681526020019081526020016000205491505092915050565b60007f52c63247e1f47db19d5ce0460030c497f067ca4cebf71ba98eeadabe20bace00905090565b600033905090565b6107448383836001610991565b505050565b60006107558484610672565b90507fffffffffffffffffffffffffffffffffffffffffffffffffffffffffffffffff81146107d757818110156107c7578281836040517ffb8f41b20000000000000000000000000000000000000000000000000000000081526004016107be93929190611218565b60405180910390fd5b6107d684848484036000610991565b5b50505050565b600073ffffffffffffffffffffffffffffffffffffffff168373ffffffffffffffffffffffffffffffffffffffff160361084f5760006040517f96c6fd1e000000000000000000000000000000000000000000000000000000008152600401610846919061124f565b60405180910390fd5b600073ffffffffffffffffffffffffffffffffffffffff168273ffffffffffffffffffffffffffffffffffffffff16036108c15760006040517fec442f050000000000000000000000000000000000000000000000000000000081526004016108b8919061124f565b60405180910390fd5b6108cc838383610b77565b505050565b600073ffffffffffffffffffffffffffffffffffffffff168273ffffffffffffffffffffffffffffffffffffffff16036109435760006040517fec442f0500000000000000000000000000000000000000000000000000000000815260040161093a919061124f565b60405180910390fd5b61094f60008383610b77565b5050565b60007ff0c57e16840df040f15088dc2f81fe391c3923bec73e23a9662efc9c229c6a00905090565b610983610db6565b61098d8282610df6565b5050565b600061099b610707565b9050600073ffffffffffffffffffffffffffffffffffffffff168573ffffffffffffffffffffffffffffffffffffffff1603610a0f5760006040517fe602df05000000000000000000000000000000000000000000000000000000008152600401610a06919061124f565b60405180910390fd5b600073ffffffffffffffffffffffffffffffffffffffff168473ffffffffffffffffffffffffffffffffffffffff1603610a815760006040517f94280d62000000000000000000000000000000000000000000000000000000008152600401610a78919061124f565b60405180910390fd5b828160010160008773ffffffffffffffffffffffffffffffffffffffff1673ffffffffffffffffffffffffffffffffffffffff16815260200190815260200160002060008673ffffffffffffffffffffffffffffffffffffffff1673ffffffffffffffffffffffffffffffffffffffff168152602001908152602001600020819055508115610b70578373ffffffffffffffffffffffffffffffffffffffff168573ffffffffffffffffffffffffffffffffffffffff167f8c5be1e5ebec7d5bd14f71427d1e84f3dd0314c0f7b2291e5b200ac8c7c3b92585604051610b679190611023565b60405180910390a35b5050505050565b6000610b81610707565b9050600073ffffffffffffffffffffffffffffffffffffffff168473ffffffffffffffffffffffffffffffffffffffff1603610bd75781816002016000828254610bcb9190611299565b92505081905550610cb0565b60008160000160008673ffffffffffffffffffffffffffffffffffffffff1673ffffffffffffffffffffffffffffffffffffffff16815260200190815260200160002054905082811015610c66578481846040517fe450d38c000000000000000000000000000000000000000000000000000000008152600401610c5d93929190611218565b60405180910390fd5b8281038260000160008773ffffffffffffffffffffffffffffffffffffffff1673ffffffffffffffffffffffffffffffffffffffff16815260200190815260200160002081905550505b600073ffffffffffffffffffffffffffffffffffffffff168373ffffffffffffffffffffffffffffffffffffffff1603610cfb57818160020160008282540392505081905550610d4b565b818160000160008573ffffffffffffffffffffffffffffffffffffffff1673ffffffffffffffffffffffffffffffffffffffff168152602001908152602001600020600082825401925050819055505b8273ffffffffffffffffffffffffffffffffffffffff168473ffffffffffffffffffffffffffffffffffffffff167fddf252ad1be2c89b69c2b068fc378daa952ba7f163c4a11628f55a4df523b3ef84604051610da89190611023565b60405180910390a350505050565b610dbe610e33565b610df4576040517fd7e6bcf800000000000000000000000000000000000000000000000000000000815260040160405180910390fd5b565b610dfe610db6565b6000610e08610707565b905082816003019081610e1b919061149e565b5081816004019081610e2d919061149e565b50505050565b6000610e3d610953565b60000160089054906101000a900460ff16905090565b600081519050919050565b600082825260208201905092915050565b60005b83811015610e8d578082015181840152602081019050610e72565b60008484015250505050565b6000601f19601f8301169050919050565b6000610eb582610e53565b610ebf8185610e5e565b9350610ecf818560208601610e6f565b610ed881610e99565b840191505092915050565b60006020820190508181036000830152610efd8184610eaa565b905092915050565b600080fd5b600073ffffffffffffffffffffffffffffffffffffffff82169050919050565b6000610f3582610f0a565b9050919050565b610f4581610f2a565b8114610f5057600080fd5b50565b600081359050610f6281610f3c565b92915050565b6000819050919050565b610f7b81610f68565b8114610f8657600080fd5b50565b600081359050610f9881610f72565b92915050565b60008060408385031215610fb557610fb4610f05565b5b6000610fc385828601610f53565b9250506020610fd485828601610f89565b9150509250929050565b60008115159050919050565b610ff381610fde565b82525050565b600060208201905061100e6000830184610fea565b92915050565b61101d81610f68565b82525050565b60006020820190506110386000830184611014565b92915050565b60008060006060848603121561105757611056610f05565b5b600061106586828701610f53565b935050602061107686828701610f53565b925050604061108786828701610f89565b9150509250925092565b600060ff82169050919050565b6110a781611091565b82525050565b60006020820190506110c2600083018461109e565b92915050565b6000602082840312156110de576110dd610f05565b5b60006110ec84828501610f53565b91505092915050565b6000806040838503121561110c5761110b610f05565b5b600061111a85828601610f53565b925050602061112b85828601610f53565b9150509250929050565b7f4e487b7100000000000000000000000000000000000000000000000000000000600052602260045260246000fd5b6000600282049050600182168061117c57607f821691505b60208210810361118f5761118e611135565b5b50919050565b6000819050919050565b600067ffffffffffffffff82169050919050565b6000819050919050565b60006111d86111d36111ce84611195565b6111b3565b61119f565b9050919050565b6111e8816111bd565b82525050565b600060208201905061120360008301846111df565b92915050565b61121281610f2a565b82525050565b600060608201905061122d6000830186611209565b61123a6020830185611014565b6112476040830184611014565b949350505050565b60006020820190506112646000830184611209565b92915050565b7f4e487b7100000000000000000000000000000000000000000000000000000000600052601160045260246000fd5b60006112a482610f68565b91506112af83610f68565b92508282019050808211156112c7576112c661126a565b5b92915050565b7f4e487b7100000000000000000000000000000000000000000000000000000000600052604160045260246000fd5b60008190508160005260206000209050919050565b60006020601f8301049050919050565b600082821b905092915050565b60006008830261135e7fffffffffffffffffffffffffffffffffffffffffffffffffffffffffffffffff82611321565b6113688683611321565b95508019841693508086168417925050509392505050565b600061139b61139661139184610f68565b6111b3565b610f68565b9050919050565b6000819050919050565b6113b583611380565b6113c96113c1826113a2565b84845461132e565b825550505050565b600090565b6113de6113d1565b6113e98184846113ac565b505050565b5b8181101561140d576114026000826113d6565b6001810190506113ef565b5050565b601f82111561145257611423816112fc565b61142c84611311565b8101602085101561143b578190505b61144f61144785611311565b8301826113ee565b50505b505050565b600082821c905092915050565b600061147560001984600802611457565b1980831691505092915050565b600061148e8383611464565b9150826002028217905092915050565b6114a782610e53565b67ffffffffffffffff8111156114c0576114bf6112cd565b5b6114ca8254611164565b6114d5828285611411565b600060209050601f83116001811461150857600084156114f6578287015190505b6115008582611482565b865550611568565b601f198416611516866112fc565b60005b8281101561153e57848901518255600182019150602085019450602081019050611519565b8683101561155b5784890151611557601f891682611464565b8355505b6001600288020188555050505b50505050505056fea2646970667358221220c02ea7766764da08cb04a01f8276568a0fb3b4ab284a80b67f9b8051a4cf9b9b64736f6c63430008140033",
  "linkReferences": {},
  "deployedLinkReferences": {}
}